{
  "_format": "hh-sol-artifact-1",
  "contractName": "LinkFar",
  "sourceName": "contracts/LinkFar.sol",
  "abi": [
    {
      "inputs": [],
      "stateMutability": "nonpayable",
      "type": "constructor"
    },
    {
      "inputs": [
        {
          "internalType": "address",
          "name": "sender",
          "type": "address"
        },
        {
          "internalType": "uint256",
          "name": "balance",
          "type": "uint256"
        },
        {
          "internalType": "uint256",
          "name": "needed",
          "type": "uint256"
        },
        {
          "internalType": "uint256",
          "name": "tokenId",
          "type": "uint256"
        }
      ],
      "name": "ERC1155InsufficientBalance",
      "type": "error"
    },
    {
      "inputs": [
        {
          "internalType": "address",
          "name": "approver",
          "type": "address"
        }
      ],
      "name": "ERC1155InvalidApprover",
      "type": "error"
    },
    {
      "inputs": [
        {
          "internalType": "uint256",
          "name": "idsLength",
          "type": "uint256"
        },
        {
          "internalType": "uint256",
          "name": "valuesLength",
          "type": "uint256"
        }
      ],
      "name": "ERC1155InvalidArrayLength",
      "type": "error"
    },
    {
      "inputs": [
        {
          "internalType": "address",
          "name": "operator",
          "type": "address"
        }
      ],
      "name": "ERC1155InvalidOperator",
      "type": "error"
    },
    {
      "inputs": [
        {
          "internalType": "address",
          "name": "receiver",
          "type": "address"
        }
      ],
      "name": "ERC1155InvalidReceiver",
      "type": "error"
    },
    {
      "inputs": [
        {
          "internalType": "address",
          "name": "sender",
          "type": "address"
        }
      ],
      "name": "ERC1155InvalidSender",
      "type": "error"
    },
    {
      "inputs": [
        {
          "internalType": "address",
          "name": "operator",
          "type": "address"
        },
        {
          "internalType": "address",
          "name": "owner",
          "type": "address"
        }
      ],
      "name": "ERC1155MissingApprovalForAll",
      "type": "error"
    },
    {
      "inputs": [],
      "name": "InvalidInitialization",
      "type": "error"
    },
    {
      "inputs": [],
      "name": "NotInitializing",
      "type": "error"
    },
    {
      "anonymous": false,
      "inputs": [
        {
          "indexed": true,
          "internalType": "address",
          "name": "account",
          "type": "address"
        },
        {
          "indexed": true,
          "internalType": "address",
          "name": "operator",
          "type": "address"
        },
        {
          "indexed": false,
          "internalType": "bool",
          "name": "approved",
          "type": "bool"
        }
      ],
      "name": "ApprovalForAll",
      "type": "event"
    },
    {
      "anonymous": false,
      "inputs": [
        {
          "indexed": false,
          "internalType": "uint64",
          "name": "version",
          "type": "uint64"
        }
      ],
      "name": "Initialized",
      "type": "event"
    },
    {
      "anonymous": false,
      "inputs": [
        {
          "indexed": true,
          "internalType": "uint256",
          "name": "id",
          "type": "uint256"
        },
        {
          "indexed": true,
          "internalType": "address",
          "name": "owner",
          "type": "address"
        },
        {
          "indexed": false,
          "internalType": "string",
          "name": "uri",
          "type": "string"
        }
      ],
      "name": "ProfileChanged",
      "type": "event"
    },
    {
      "anonymous": false,
      "inputs": [
        {
          "indexed": true,
          "internalType": "uint256",
          "name": "id",
          "type": "uint256"
        },
        {
          "indexed": true,
          "internalType": "address",
          "name": "owner",
          "type": "address"
        },
        {
          "indexed": false,
          "internalType": "string",
          "name": "uri",
          "type": "string"
        }
      ],
      "name": "ProfileCreated",
      "type": "event"
    },
    {
      "anonymous": false,
      "inputs": [
        {
          "indexed": true,
          "internalType": "address",
          "name": "operator",
          "type": "address"
        },
        {
          "indexed": true,
          "internalType": "address",
          "name": "from",
          "type": "address"
        },
        {
          "indexed": true,
          "internalType": "address",
          "name": "to",
          "type": "address"
        },
        {
          "indexed": false,
          "internalType": "uint256[]",
          "name": "ids",
          "type": "uint256[]"
        },
        {
          "indexed": false,
          "internalType": "uint256[]",
          "name": "values",
          "type": "uint256[]"
        }
      ],
      "name": "TransferBatch",
      "type": "event"
    },
    {
      "anonymous": false,
      "inputs": [
        {
          "indexed": true,
          "internalType": "address",
          "name": "operator",
          "type": "address"
        },
        {
          "indexed": true,
          "internalType": "address",
          "name": "from",
          "type": "address"
        },
        {
          "indexed": true,
          "internalType": "address",
          "name": "to",
          "type": "address"
        },
        {
          "indexed": false,
          "internalType": "uint256",
          "name": "id",
          "type": "uint256"
        },
        {
          "indexed": false,
          "internalType": "uint256",
          "name": "value",
          "type": "uint256"
        }
      ],
      "name": "TransferSingle",
      "type": "event"
    },
    {
      "anonymous": false,
      "inputs": [
        {
          "indexed": false,
          "internalType": "string",
          "name": "value",
          "type": "string"
        },
        {
          "indexed": true,
          "internalType": "uint256",
          "name": "id",
          "type": "uint256"
        }
      ],
      "name": "URI",
      "type": "event"
    },
    {
      "inputs": [
        {
          "internalType": "address",
          "name": "account",
          "type": "address"
        },
        {
          "internalType": "uint256",
          "name": "id",
          "type": "uint256"
        }
      ],
      "name": "balanceOf",
      "outputs": [
        {
          "internalType": "uint256",
          "name": "",
          "type": "uint256"
        }
      ],
      "stateMutability": "view",
      "type": "function"
    },
    {
      "inputs": [
        {
          "internalType": "address[]",
          "name": "accounts",
          "type": "address[]"
        },
        {
          "internalType": "uint256[]",
          "name": "ids",
          "type": "uint256[]"
        }
      ],
      "name": "balanceOfBatch",
      "outputs": [
        {
          "internalType": "uint256[]",
          "name": "",
          "type": "uint256[]"
        }
      ],
      "stateMutability": "view",
      "type": "function"
    },
    {
      "inputs": [
        {
          "internalType": "address",
          "name": "account",
          "type": "address"
        },
        {
          "internalType": "uint256",
          "name": "id",
          "type": "uint256"
        },
        {
          "internalType": "uint256",
          "name": "value",
          "type": "uint256"
        }
      ],
      "name": "burn",
      "outputs": [],
      "stateMutability": "nonpayable",
      "type": "function"
    },
    {
      "inputs": [
        {
          "internalType": "address",
          "name": "account",
          "type": "address"
        },
        {
          "internalType": "uint256[]",
          "name": "ids",
          "type": "uint256[]"
        },
        {
          "internalType": "uint256[]",
          "name": "values",
          "type": "uint256[]"
        }
      ],
      "name": "burnBatch",
      "outputs": [],
      "stateMutability": "nonpayable",
      "type": "function"
    },
    {
      "inputs": [
        {
          "internalType": "uint256",
          "name": "id",
          "type": "uint256"
        }
      ],
      "name": "exists",
      "outputs": [
        {
          "internalType": "bool",
          "name": "",
          "type": "bool"
        }
      ],
      "stateMutability": "view",
      "type": "function"
    },
    {
      "inputs": [
        {
          "internalType": "address",
          "name": "_user",
          "type": "address"
        }
      ],
      "name": "getProfile",
      "outputs": [
        {
          "components": [
            {
              "internalType": "address",
              "name": "owner",
              "type": "address"
            },
            {
              "internalType": "string",
              "name": "uri",
              "type": "string"
            },
            {
              "internalType": "string",
              "name": "slug",
              "type": "string"
            }
          ],
          "internalType": "struct Profile",
          "name": "",
          "type": "tuple"
        }
      ],
      "stateMutability": "view",
      "type": "function"
    },
    {
      "inputs": [
        {
          "internalType": "string",
          "name": "_slug",
          "type": "string"
        }
      ],
      "name": "getProfileBySlug",
      "outputs": [
        {
          "components": [
            {
              "internalType": "address",
              "name": "owner",
              "type": "address"
            },
            {
              "internalType": "string",
              "name": "uri",
              "type": "string"
            },
            {
              "internalType": "string",
              "name": "slug",
              "type": "string"
            }
          ],
          "internalType": "struct Profile",
          "name": "",
          "type": "tuple"
        }
      ],
      "stateMutability": "view",
      "type": "function"
    },
    {
      "inputs": [],
      "name": "getVersion",
      "outputs": [
        {
          "internalType": "string",
          "name": "",
          "type": "string"
        }
      ],
      "stateMutability": "pure",
      "type": "function"
    },
    {
      "inputs": [],
      "name": "initialize",
      "outputs": [],
      "stateMutability": "nonpayable",
      "type": "function"
    },
    {
      "inputs": [
        {
          "internalType": "address",
          "name": "account",
          "type": "address"
        },
        {
          "internalType": "address",
          "name": "operator",
          "type": "address"
        }
      ],
      "name": "isApprovedForAll",
      "outputs": [
        {
          "internalType": "bool",
          "name": "",
          "type": "bool"
        }
      ],
      "stateMutability": "view",
      "type": "function"
    },
    {
      "inputs": [
        {
          "internalType": "string",
          "name": "_uri",
          "type": "string"
        }
      ],
      "name": "mint",
      "outputs": [
        {
          "internalType": "uint256",
          "name": "",
          "type": "uint256"
        }
      ],
      "stateMutability": "nonpayable",
      "type": "function"
    },
    {
      "inputs": [
        {
          "internalType": "address",
          "name": "from",
          "type": "address"
        },
        {
          "internalType": "address",
          "name": "to",
          "type": "address"
        },
        {
          "internalType": "uint256[]",
          "name": "ids",
          "type": "uint256[]"
        },
        {
          "internalType": "uint256[]",
          "name": "values",
          "type": "uint256[]"
        },
        {
          "internalType": "bytes",
          "name": "data",
          "type": "bytes"
        }
      ],
      "name": "safeBatchTransferFrom",
      "outputs": [],
      "stateMutability": "nonpayable",
      "type": "function"
    },
    {
      "inputs": [
        {
          "internalType": "address",
          "name": "from",
          "type": "address"
        },
        {
          "internalType": "address",
          "name": "to",
          "type": "address"
        },
        {
          "internalType": "uint256",
          "name": "id",
          "type": "uint256"
        },
        {
          "internalType": "uint256",
          "name": "value",
          "type": "uint256"
        },
        {
          "internalType": "bytes",
          "name": "data",
          "type": "bytes"
        }
      ],
      "name": "safeTransferFrom",
      "outputs": [],
      "stateMutability": "nonpayable",
      "type": "function"
    },
    {
      "inputs": [
        {
          "internalType": "address",
          "name": "operator",
          "type": "address"
        },
        {
          "internalType": "bool",
          "name": "approved",
          "type": "bool"
        }
      ],
      "name": "setApprovalForAll",
      "outputs": [],
      "stateMutability": "nonpayable",
      "type": "function"
    },
    {
      "inputs": [
        {
          "internalType": "string",
          "name": "_slug",
          "type": "string"
        }
      ],
      "name": "setSlug",
      "outputs": [],
      "stateMutability": "nonpayable",
      "type": "function"
    },
    {
      "inputs": [
        {
          "internalType": "bytes4",
          "name": "interfaceId",
          "type": "bytes4"
        }
      ],
      "name": "supportsInterface",
      "outputs": [
        {
          "internalType": "bool",
          "name": "",
          "type": "bool"
        }
      ],
      "stateMutability": "view",
      "type": "function"
    },
    {
      "inputs": [],
      "name": "totalSupply",
      "outputs": [
        {
          "internalType": "uint256",
          "name": "",
          "type": "uint256"
        }
      ],
      "stateMutability": "view",
      "type": "function"
    },
    {
      "inputs": [
        {
          "internalType": "uint256",
          "name": "id",
          "type": "uint256"
        }
      ],
      "name": "totalSupply",
      "outputs": [
        {
          "internalType": "uint256",
          "name": "",
          "type": "uint256"
        }
      ],
      "stateMutability": "view",
      "type": "function"
    },
    {
      "inputs": [
        {
          "internalType": "string",
          "name": "_uri",
          "type": "string"
        }
      ],
      "name": "updateProfile",
      "outputs": [],
      "stateMutability": "nonpayable",
      "type": "function"
    },
    {
      "inputs": [
        {
          "internalType": "uint256",
          "name": "tokenId",
          "type": "uint256"
        }
      ],
      "name": "uri",
      "outputs": [
        {
          "internalType": "string",
          "name": "",
          "type": "string"
        }
      ],
      "stateMutability": "view",
      "type": "function"
    }
  ],
  "bytecode": "0x608060405234801561001057600080fd5b5061001f61002460201b60201c565b61018e565b600061003461012860201b60201c565b90508060000160089054906101000a900460ff161561007f576040517ff92ee8a900000000000000000000000000000000000000000000000000000000815260040160405180910390fd5b67ffffffffffffffff80168160000160009054906101000a900467ffffffffffffffff1667ffffffffffffffff16146101255767ffffffffffffffff8160000160006101000a81548167ffffffffffffffff021916908367ffffffffffffffff1602179055507fc7f505b2f371ae2175ee4913f4499e1f2633a7b5936321eed1cdaeb6115181d267ffffffffffffffff60405161011c9190610173565b60405180910390a15b50565b60007ff0c57e16840df040f15088dc2f81fe391c3923bec73e23a9662efc9c229c6a00905090565b600067ffffffffffffffff82169050919050565b61016d81610150565b82525050565b60006020820190506101886000830184610164565b92915050565b6139ec8061019d6000396000f3fe608060405234801561001057600080fd5b506004361061012a5760003560e01c80636b20c454116100ad578063db0297d911610071578063db0297d914610365578063de91375d14610395578063e985e9c5146103b1578063f242432a146103e1578063f5298aca146103fd5761012a565b80636b20c454146102c35780638129fc1c146102df578063a22cb465146102e9578063bd85b03914610305578063d85d3d27146103355761012a565b80630f53a470116100f45780630f53a470146101f957806318160ddd146102295780632eb2c2d6146102475780634e1273f4146102635780634f558e79146102935761012a565b80629299e31461012f578062fdd58e1461014b57806301ffc9a71461017b5780630d8e6e2c146101ab5780630e89341c146101c9575b600080fd5b610149600480360381019061014491906127b1565b610419565b005b6101656004803603810190610160919061288e565b610557565b60405161017291906128dd565b60405180910390f35b61019560048036038101906101909190612950565b6105c0565b6040516101a29190612998565b60405180910390f35b6101b36106a2565b6040516101c09190612a32565b60405180910390f35b6101e360048036038101906101de9190612a54565b6106df565b6040516101f09190612a32565b60405180910390f35b610213600480360381019061020e9190612a81565b610787565b6040516102209190612b5e565b60405180910390f35b610231610973565b60405161023e91906128dd565b60405180910390f35b610261600480360381019061025c9190612ce9565b61098b565b005b61027d60048036038101906102789190612e7b565b610a33565b60405161028a9190612fb1565b60405180910390f35b6102ad60048036038101906102a89190612a54565b610b3c565b6040516102ba9190612998565b60405180910390f35b6102dd60048036038101906102d89190612fd3565b610b50565b005b6102e7610bfc565b005b61030360048036038101906102fe919061308a565b610da9565b005b61031f600480360381019061031a9190612a54565b610dbf565b60405161032c91906128dd565b60405180910390f35b61034f600480360381019061034a91906127b1565b610dea565b60405161035c91906128dd565b60405180910390f35b61037f600480360381019061037a91906127b1565b611013565b60405161038c9190612b5e565b60405180910390f35b6103af60048036038101906103aa91906127b1565b6111d8565b005b6103cb60048036038101906103c691906130ca565b61134a565b6040516103d89190612998565b60405180910390f35b6103fb60048036038101906103f6919061310a565b6113ec565b005b610417600480360381019061041291906131a1565b611494565b005b6000600260003373ffffffffffffffffffffffffffffffffffffffff1673ffffffffffffffffffffffffffffffffffffffff168152602001908152602001600020540361049b576040517f08c379a000000000000000000000000000000000000000000000000000000000815260040161049290613240565b60405180910390fd5b6000600260003373ffffffffffffffffffffffffffffffffffffffff1673ffffffffffffffffffffffffffffffffffffffff16815260200190815260200160002054905081600160008381526020019081526020016000206001019081610502919061346c565b503373ffffffffffffffffffffffffffffffffffffffff1660017fe11c3ae58a036068fd0179bf17d3fdf99972e1c38ac40c6e8d9d30e5aa30b7b38460405161054b9190612a32565b60405180910390a35050565b600080610562611540565b905080600001600084815260200190815260200160002060008573ffffffffffffffffffffffffffffffffffffffff1673ffffffffffffffffffffffffffffffffffffffff1681526020019081526020016000205491505092915050565b60007fd9b67a26000000000000000000000000000000000000000000000000000000007bffffffffffffffffffffffffffffffffffffffffffffffffffffffff1916827bffffffffffffffffffffffffffffffffffffffffffffffffffffffff1916148061068b57507f0e89341c000000000000000000000000000000000000000000000000000000007bffffffffffffffffffffffffffffffffffffffffffffffffffffffff1916827bffffffffffffffffffffffffffffffffffffffffffffffffffffffff1916145b8061069b575061069a82611568565b5b9050919050565b60606040518060400160405280600581526020017f302e302e31000000000000000000000000000000000000000000000000000000815250905090565b60606001600083815260200190815260200160002060010180546107029061328f565b80601f016020809104026020016040519081016040528092919081815260200182805461072e9061328f565b801561077b5780601f106107505761010080835404028352916020019161077b565b820191906000526020600020905b81548152906001019060200180831161075e57829003601f168201915b50505050509050919050565b61078f612620565b6000600260008473ffffffffffffffffffffffffffffffffffffffff1673ffffffffffffffffffffffffffffffffffffffff168152602001908152602001600020549050600160008281526020019081526020016000206040518060600160405290816000820160009054906101000a900473ffffffffffffffffffffffffffffffffffffffff1673ffffffffffffffffffffffffffffffffffffffff1673ffffffffffffffffffffffffffffffffffffffff1681526020016001820180546108579061328f565b80601f01602080910402602001604051908101604052809291908181526020018280546108839061328f565b80156108d05780601f106108a5576101008083540402835291602001916108d0565b820191906000526020600020905b8154815290600101906020018083116108b357829003601f168201915b505050505081526020016002820180546108e99061328f565b80601f01602080910402602001604051908101604052809291908181526020018280546109159061328f565b80156109625780601f1061093757610100808354040283529160200191610962565b820191906000526020600020905b81548152906001019060200180831161094557829003601f168201915b505050505081525050915050919050565b60008061097e6115d2565b9050806001015491505090565b60006109956115fa565b90508073ffffffffffffffffffffffffffffffffffffffff168673ffffffffffffffffffffffffffffffffffffffff16141580156109da57506109d8868261134a565b155b15610a1e5780866040517fe237d922000000000000000000000000000000000000000000000000000000008152600401610a1592919061354d565b60405180910390fd5b610a2b8686868686611602565b505050505050565b60608151835114610a7f57815183516040517f5b059991000000000000000000000000000000000000000000000000000000008152600401610a76929190613576565b60405180910390fd5b6000835167ffffffffffffffff811115610a9c57610a9b612686565b5b604051908082528060200260200182016040528015610aca5781602001602082028036833780820191505090505b50905060005b8451811015610b3157610b07610aef82876116fa90919063ffffffff16565b610b02838761170e90919063ffffffff16565b610557565b828281518110610b1a57610b1961359f565b5b602002602001018181525050806001019050610ad0565b508091505092915050565b600080610b4883610dbf565b119050919050565b610b586115fa565b73ffffffffffffffffffffffffffffffffffffffff168373ffffffffffffffffffffffffffffffffffffffff1614158015610ba15750610b9f83610b9a6115fa565b61134a565b155b15610bec57610bae6115fa565b836040517fe237d922000000000000000000000000000000000000000000000000000000008152600401610be392919061354d565b60405180910390fd5b610bf7838383611722565b505050565b6000610c066117b6565b905060008160000160089054906101000a900460ff1615905060008260000160009054906101000a900467ffffffffffffffff1690506000808267ffffffffffffffff16148015610c545750825b9050600060018367ffffffffffffffff16148015610c89575060003073ffffffffffffffffffffffffffffffffffffffff163b145b905081158015610c97575080155b15610cce576040517ff92ee8a900000000000000000000000000000000000000000000000000000000815260040160405180910390fd5b60018560000160006101000a81548167ffffffffffffffff021916908367ffffffffffffffff1602179055508315610d1e5760018560000160086101000a81548160ff0219169083151502179055505b610d36604051806020016040528060008152506117de565b610d3e6117f2565b610d466117fc565b8315610da25760008560000160086101000a81548160ff0219169083151502179055507fc7f505b2f371ae2175ee4913f4499e1f2633a7b5936321eed1cdaeb6115181d26001604051610d99919061361d565b60405180910390a15b5050505050565b610dbb610db46115fa565b8383611806565b5050565b600080610dca6115d2565b905080600001600084815260200190815260200160002054915050919050565b600080600260003373ffffffffffffffffffffffffffffffffffffffff1673ffffffffffffffffffffffffffffffffffffffff1681526020019081526020016000205414610e6d576040517f08c379a0000000000000000000000000000000000000000000000000000000008152600401610e6490613684565b60405180910390fd5b6001600080828254610e7f91906136d3565b92505081905550600080549050600060405180606001604052803373ffffffffffffffffffffffffffffffffffffffff168152602001858152602001604051806020016040528060008152508152509050806001600084815260200190815260200160002060008201518160000160006101000a81548173ffffffffffffffffffffffffffffffffffffffff021916908373ffffffffffffffffffffffffffffffffffffffff1602179055506020820151816001019081610f40919061346c565b506040820151816002019081610f56919061346c565b5090505081600260003373ffffffffffffffffffffffffffffffffffffffff1673ffffffffffffffffffffffffffffffffffffffff16815260200190815260200160002081905550610fba3383600160405180602001604052806000815250611985565b3373ffffffffffffffffffffffffffffffffffffffff16827f64849d9017ccd37161417597e9733299a671f98dcb0907422672a2e159eb1217866040516110019190612a32565b60405180910390a38192505050919050565b61101b612620565b6001600060038460405161102f9190613743565b90815260200160405180910390205481526020019081526020016000206040518060600160405290816000820160009054906101000a900473ffffffffffffffffffffffffffffffffffffffff1673ffffffffffffffffffffffffffffffffffffffff1673ffffffffffffffffffffffffffffffffffffffff1681526020016001820180546110bd9061328f565b80601f01602080910402602001604051908101604052809291908181526020018280546110e99061328f565b80156111365780601f1061110b57610100808354040283529160200191611136565b820191906000526020600020905b81548152906001019060200180831161111957829003601f168201915b5050505050815260200160028201805461114f9061328f565b80601f016020809104026020016040519081016040528092919081815260200182805461117b9061328f565b80156111c85780601f1061119d576101008083540402835291602001916111c8565b820191906000526020600020905b8154815290600101906020018083116111ab57829003601f168201915b5050505050815250509050919050565b6000600260003373ffffffffffffffffffffffffffffffffffffffff1673ffffffffffffffffffffffffffffffffffffffff168152602001908152602001600020540361125a576040517f08c379a000000000000000000000000000000000000000000000000000000000815260040161125190613240565b60405180910390fd5b600060038260405161126c9190613743565b908152602001604051809103902054146112bb576040517f08c379a00000000000000000000000000000000000000000000000000000000081526004016112b2906137a6565b60405180910390fd5b6000600260003373ffffffffffffffffffffffffffffffffffffffff1673ffffffffffffffffffffffffffffffffffffffff168152602001908152602001600020549050806003836040516113109190613743565b90815260200160405180910390208190555081600160008381526020019081526020016000206002019081611345919061346c565b505050565b600080611355611540565b90508060010160008573ffffffffffffffffffffffffffffffffffffffff1673ffffffffffffffffffffffffffffffffffffffff16815260200190815260200160002060008473ffffffffffffffffffffffffffffffffffffffff1673ffffffffffffffffffffffffffffffffffffffff16815260200190815260200160002060009054906101000a900460ff1691505092915050565b60006113f66115fa565b90508073ffffffffffffffffffffffffffffffffffffffff168673ffffffffffffffffffffffffffffffffffffffff161415801561143b5750611439868261134a565b155b1561147f5780866040517fe237d92200000000000000000000000000000000000000000000000000000000815260040161147692919061354d565b60405180910390fd5b61148c8686868686611a1e565b505050505050565b61149c6115fa565b73ffffffffffffffffffffffffffffffffffffffff168373ffffffffffffffffffffffffffffffffffffffff16141580156114e557506114e3836114de6115fa565b61134a565b155b15611530576114f26115fa565b836040517fe237d92200000000000000000000000000000000000000000000000000000000815260040161152792919061354d565b60405180910390fd5b61153b838383611b29565b505050565b60007f88be536d5240c274a3b1d3a1be54482fd9caa294f08c62a7cde569f49a3c4500905090565b60007f01ffc9a7000000000000000000000000000000000000000000000000000000007bffffffffffffffffffffffffffffffffffffffffffffffffffffffff1916827bffffffffffffffffffffffffffffffffffffffffffffffffffffffff1916149050919050565b60007f4a593662ee04d27b6a00ebb31be7fe0c102c2ade82a7c5d764f2df05dc4e2800905090565b600033905090565b600073ffffffffffffffffffffffffffffffffffffffff168473ffffffffffffffffffffffffffffffffffffffff16036116745760006040517f57f447ce00000000000000000000000000000000000000000000000000000000815260040161166b91906137c6565b60405180910390fd5b600073ffffffffffffffffffffffffffffffffffffffff168573ffffffffffffffffffffffffffffffffffffffff16036116e65760006040517f01a835140000000000000000000000000000000000000000000000000000000081526004016116dd91906137c6565b60405180910390fd5b6116f38585858585611bd0565b5050505050565b600060208202602084010151905092915050565b600060208202602084010151905092915050565b600073ffffffffffffffffffffffffffffffffffffffff168373ffffffffffffffffffffffffffffffffffffffff16036117945760006040517f01a8351400000000000000000000000000000000000000000000000000000000815260040161178b91906137c6565b60405180910390fd5b6117b1836000848460405180602001604052806000815250611bd0565b505050565b60007ff0c57e16840df040f15088dc2f81fe391c3923bec73e23a9662efc9c229c6a00905090565b6117e6611c82565b6117ef81611cc2565b50565b6117fa611c82565b565b611804611c82565b565b6000611810611540565b9050600073ffffffffffffffffffffffffffffffffffffffff168373ffffffffffffffffffffffffffffffffffffffff16036118845760006040517fced3e10000000000000000000000000000000000000000000000000000000000815260040161187b91906137c6565b60405180910390fd5b818160010160008673ffffffffffffffffffffffffffffffffffffffff1673ffffffffffffffffffffffffffffffffffffffff16815260200190815260200160002060008573ffffffffffffffffffffffffffffffffffffffff1673ffffffffffffffffffffffffffffffffffffffff16815260200190815260200160002060006101000a81548160ff0219169083151502179055508273ffffffffffffffffffffffffffffffffffffffff168473ffffffffffffffffffffffffffffffffffffffff167f17307eab39ab6107e8899845ad3d59bd9653f200f220920489ca2b5937696c31846040516119779190612998565b60405180910390a350505050565b600073ffffffffffffffffffffffffffffffffffffffff168473ffffffffffffffffffffffffffffffffffffffff16036119f75760006040517f57f447ce0000000000000000000000000000000000000000000000000000000081526004016119ee91906137c6565b60405180910390fd5b600080611a048585611cd6565b91509150611a16600087848487611bd0565b505050505050565b600073ffffffffffffffffffffffffffffffffffffffff168473ffffffffffffffffffffffffffffffffffffffff1603611a905760006040517f57f447ce000000000000000000000000000000000000000000000000000000008152600401611a8791906137c6565b60405180910390fd5b600073ffffffffffffffffffffffffffffffffffffffff168573ffffffffffffffffffffffffffffffffffffffff1603611b025760006040517f01a83514000000000000000000000000000000000000000000000000000000008152600401611af991906137c6565b60405180910390fd5b600080611b0f8585611cd6565b91509150611b208787848487611bd0565b50505050505050565b600073ffffffffffffffffffffffffffffffffffffffff168373ffffffffffffffffffffffffffffffffffffffff1603611b9b5760006040517f01a83514000000000000000000000000000000000000000000000000000000008152600401611b9291906137c6565b60405180910390fd5b600080611ba88484611cd6565b91509150611bc9856000848460405180602001604052806000815250611bd0565b5050505050565b611bdc85858585611d06565b600073ffffffffffffffffffffffffffffffffffffffff168473ffffffffffffffffffffffffffffffffffffffff1614611c7b576000611c1a6115fa565b90506001845103611c6a576000611c3b60008661170e90919063ffffffff16565b90506000611c5360008661170e90919063ffffffff16565b9050611c63838989858589611d18565b5050611c79565b611c78818787878787611ecc565b5b505b5050505050565b611c8a612080565b611cc0576040517fd7e6bcf800000000000000000000000000000000000000000000000000000000815260040160405180910390fd5b565b611cca611c82565b611cd3816120a0565b50565b60608060405191506001825283602083015260408201905060018152826020820152604081016040529250929050565b611d12848484846120c2565b50505050565b60008473ffffffffffffffffffffffffffffffffffffffff163b1115611ec4578373ffffffffffffffffffffffffffffffffffffffff1663f23a6e6187878686866040518663ffffffff1660e01b8152600401611d79959493929190613836565b6020604051808303816000875af1925050508015611db557506040513d601f19601f82011682018060405250810190611db291906138a5565b60015b611e39573d8060008114611de5576040519150601f19603f3d011682016040523d82523d6000602084013e611dea565b606091505b506000815103611e3157846040517f57f447ce000000000000000000000000000000000000000000000000000000008152600401611e2891906137c6565b60405180910390fd5b805181602001fd5b63f23a6e6160e01b7bffffffffffffffffffffffffffffffffffffffffffffffffffffffff1916817bffffffffffffffffffffffffffffffffffffffffffffffffffffffff191614611ec257846040517f57f447ce000000000000000000000000000000000000000000000000000000008152600401611eb991906137c6565b60405180910390fd5b505b505050505050565b60008473ffffffffffffffffffffffffffffffffffffffff163b1115612078578373ffffffffffffffffffffffffffffffffffffffff1663bc197c8187878686866040518663ffffffff1660e01b8152600401611f2d9594939291906138d2565b6020604051808303816000875af1925050508015611f6957506040513d601f19601f82011682018060405250810190611f6691906138a5565b60015b611fed573d8060008114611f99576040519150601f19603f3d011682016040523d82523d6000602084013e611f9e565b606091505b506000815103611fe557846040517f57f447ce000000000000000000000000000000000000000000000000000000008152600401611fdc91906137c6565b60405180910390fd5b805181602001fd5b63bc197c8160e01b7bffffffffffffffffffffffffffffffffffffffffffffffffffffffff1916817bffffffffffffffffffffffffffffffffffffffffffffffffffffffff19161461207657846040517f57f447ce00000000000000000000000000000000000000000000000000000000815260040161206d91906137c6565b60405180910390fd5b505b505050505050565b600061208a6117b6565b60000160089054906101000a900460ff16905090565b60006120aa611540565b9050818160020190816120bd919061346c565b505050565b60006120cc6115d2565b90506120da85858585612262565b600073ffffffffffffffffffffffffffffffffffffffff168573ffffffffffffffffffffffffffffffffffffffff16036121a8576000805b845181101561218a576000612130828661170e90919063ffffffff16565b90508084600001600061214c858a61170e90919063ffffffff16565b8152602001908152602001600020600082825461216991906136d3565b92505081905550808361217c91906136d3565b925050806001019050612112565b508082600101600082825461219f91906136d3565b92505081905550505b600073ffffffffffffffffffffffffffffffffffffffff168473ffffffffffffffffffffffffffffffffffffffff160361225b576000805b84518110156122465760006121fe828661170e90919063ffffffff16565b90508084600001600061221a858a61170e90919063ffffffff16565b8152602001908152602001600020600082825403925050819055508083019250508060010190506121e0565b50808260010160008282540392505081905550505b5050505050565b600061226c611540565b905081518351146122b857825182516040517f5b0599910000000000000000000000000000000000000000000000000000000081526004016122af929190613576565b60405180910390fd5b60006122c26115fa565b905060005b84518110156124da5760006122e5828761170e90919063ffffffff16565b905060006122fc838761170e90919063ffffffff16565b9050600073ffffffffffffffffffffffffffffffffffffffff168973ffffffffffffffffffffffffffffffffffffffff161461242f57600085600001600084815260200190815260200160002060008b73ffffffffffffffffffffffffffffffffffffffff1673ffffffffffffffffffffffffffffffffffffffff168152602001908152602001600020549050818110156123d457898183856040517f03dee4c50000000000000000000000000000000000000000000000000000000081526004016123cb949392919061393a565b60405180910390fd5b81810386600001600085815260200190815260200160002060008c73ffffffffffffffffffffffffffffffffffffffff1673ffffffffffffffffffffffffffffffffffffffff16815260200190815260200160002081905550505b600073ffffffffffffffffffffffffffffffffffffffff168873ffffffffffffffffffffffffffffffffffffffff16146124cd578085600001600084815260200190815260200160002060008a73ffffffffffffffffffffffffffffffffffffffff1673ffffffffffffffffffffffffffffffffffffffff16815260200190815260200160002060008282546124c591906136d3565b925050819055505b50508060010190506122c7565b5060018451036125995760006124fa60008661170e90919063ffffffff16565b9050600061251260008661170e90919063ffffffff16565b90508673ffffffffffffffffffffffffffffffffffffffff168873ffffffffffffffffffffffffffffffffffffffff168473ffffffffffffffffffffffffffffffffffffffff167fc3d58168c5ae7397731d063d5bbf3d657854427343f4c083240f7aacaa2d0f62858560405161258a929190613576565b60405180910390a45050612618565b8473ffffffffffffffffffffffffffffffffffffffff168673ffffffffffffffffffffffffffffffffffffffff168273ffffffffffffffffffffffffffffffffffffffff167f4a39dc06d4c0dbc64b70af90fd698a233a518aa5d07e595d983b8c0526c8f7fb878760405161260f92919061397f565b60405180910390a45b505050505050565b6040518060600160405280600073ffffffffffffffffffffffffffffffffffffffff16815260200160608152602001606081525090565b6000604051905090565b600080fd5b600080fd5b600080fd5b600080fd5b6000601f19601f8301169050919050565b7f4e487b7100000000000000000000000000000000000000000000000000000000600052604160045260246000fd5b6126be82612675565b810181811067ffffffffffffffff821117156126dd576126dc612686565b5b80604052505050565b60006126f0612657565b90506126fc82826126b5565b919050565b600067ffffffffffffffff82111561271c5761271b612686565b5b61272582612675565b9050602081019050919050565b82818337600083830152505050565b600061275461274f84612701565b6126e6565b9050828152602081018484840111156127705761276f612670565b5b61277b848285612732565b509392505050565b600082601f8301126127985761279761266b565b5b81356127a8848260208601612741565b91505092915050565b6000602082840312156127c7576127c6612661565b5b600082013567ffffffffffffffff8111156127e5576127e4612666565b5b6127f184828501612783565b91505092915050565b600073ffffffffffffffffffffffffffffffffffffffff82169050919050565b6000612825826127fa565b9050919050565b6128358161281a565b811461284057600080fd5b50565b6000813590506128528161282c565b92915050565b6000819050919050565b61286b81612858565b811461287657600080fd5b50565b60008135905061288881612862565b92915050565b600080604083850312156128a5576128a4612661565b5b60006128b385828601612843565b92505060206128c485828601612879565b9150509250929050565b6128d781612858565b82525050565b60006020820190506128f260008301846128ce565b92915050565b60007fffffffff0000000000000000000000000000000000000000000000000000000082169050919050565b61292d816128f8565b811461293857600080fd5b50565b60008135905061294a81612924565b92915050565b60006020828403121561296657612965612661565b5b60006129748482850161293b565b91505092915050565b60008115159050919050565b6129928161297d565b82525050565b60006020820190506129ad6000830184612989565b92915050565b600081519050919050565b600082825260208201905092915050565b60005b838110156129ed5780820151818401526020810190506129d2565b60008484015250505050565b6000612a04826129b3565b612a0e81856129be565b9350612a1e8185602086016129cf565b612a2781612675565b840191505092915050565b60006020820190508181036000830152612a4c81846129f9565b905092915050565b600060208284031215612a6a57612a69612661565b5b6000612a7884828501612879565b91505092915050565b600060208284031215612a9757612a96612661565b5b6000612aa584828501612843565b91505092915050565b612ab78161281a565b82525050565b600082825260208201905092915050565b6000612ad9826129b3565b612ae38185612abd565b9350612af38185602086016129cf565b612afc81612675565b840191505092915050565b6000606083016000830151612b1f6000860182612aae565b5060208301518482036020860152612b378282612ace565b91505060408301518482036040860152612b518282612ace565b9150508091505092915050565b60006020820190508181036000830152612b788184612b07565b905092915050565b600067ffffffffffffffff821115612b9b57612b9a612686565b5b602082029050602081019050919050565b600080fd5b6000612bc4612bbf84612b80565b6126e6565b90508083825260208201905060208402830185811115612be757612be6612bac565b5b835b81811015612c105780612bfc8882612879565b845260208401935050602081019050612be9565b5050509392505050565b600082601f830112612c2f57612c2e61266b565b5b8135612c3f848260208601612bb1565b91505092915050565b600067ffffffffffffffff821115612c6357612c62612686565b5b612c6c82612675565b9050602081019050919050565b6000612c8c612c8784612c48565b6126e6565b905082815260208101848484011115612ca857612ca7612670565b5b612cb3848285612732565b509392505050565b600082601f830112612cd057612ccf61266b565b5b8135612ce0848260208601612c79565b91505092915050565b600080600080600060a08688031215612d0557612d04612661565b5b6000612d1388828901612843565b9550506020612d2488828901612843565b945050604086013567ffffffffffffffff811115612d4557612d44612666565b5b612d5188828901612c1a565b935050606086013567ffffffffffffffff811115612d7257612d71612666565b5b612d7e88828901612c1a565b925050608086013567ffffffffffffffff811115612d9f57612d9e612666565b5b612dab88828901612cbb565b9150509295509295909350565b600067ffffffffffffffff821115612dd357612dd2612686565b5b602082029050602081019050919050565b6000612df7612df284612db8565b6126e6565b90508083825260208201905060208402830185811115612e1a57612e19612bac565b5b835b81811015612e435780612e2f8882612843565b845260208401935050602081019050612e1c565b5050509392505050565b600082601f830112612e6257612e6161266b565b5b8135612e72848260208601612de4565b91505092915050565b60008060408385031215612e9257612e91612661565b5b600083013567ffffffffffffffff811115612eb057612eaf612666565b5b612ebc85828601612e4d565b925050602083013567ffffffffffffffff811115612edd57612edc612666565b5b612ee985828601612c1a565b9150509250929050565b600081519050919050565b600082825260208201905092915050565b6000819050602082019050919050565b612f2881612858565b82525050565b6000612f3a8383612f1f565b60208301905092915050565b6000602082019050919050565b6000612f5e82612ef3565b612f688185612efe565b9350612f7383612f0f565b8060005b83811015612fa4578151612f8b8882612f2e565b9750612f9683612f46565b925050600181019050612f77565b5085935050505092915050565b60006020820190508181036000830152612fcb8184612f53565b905092915050565b600080600060608486031215612fec57612feb612661565b5b6000612ffa86828701612843565b935050602084013567ffffffffffffffff81111561301b5761301a612666565b5b61302786828701612c1a565b925050604084013567ffffffffffffffff81111561304857613047612666565b5b61305486828701612c1a565b9150509250925092565b6130678161297d565b811461307257600080fd5b50565b6000813590506130848161305e565b92915050565b600080604083850312156130a1576130a0612661565b5b60006130af85828601612843565b92505060206130c085828601613075565b9150509250929050565b600080604083850312156130e1576130e0612661565b5b60006130ef85828601612843565b925050602061310085828601612843565b9150509250929050565b600080600080600060a0868803121561312657613125612661565b5b600061313488828901612843565b955050602061314588828901612843565b945050604061315688828901612879565b935050606061316788828901612879565b925050608086013567ffffffffffffffff81111561318857613187612666565b5b61319488828901612cbb565b9150509295509295909350565b6000806000606084860312156131ba576131b9612661565b5b60006131c886828701612843565b93505060206131d986828701612879565b92505060406131ea86828701612879565b9150509250925092565b7f50726f66696c6520646f6573206e6f7420657869737400000000000000000000600082015250565b600061322a6016836129be565b9150613235826131f4565b602082019050919050565b600060208201905081810360008301526132598161321d565b9050919050565b7f4e487b7100000000000000000000000000000000000000000000000000000000600052602260045260246000fd5b600060028204905060018216806132a757607f821691505b6020821081036132ba576132b9613260565b5b50919050565b60008190508160005260206000209050919050565b60006020601f8301049050919050565b600082821b905092915050565b6000600883026133227fffffffffffffffffffffffffffffffffffffffffffffffffffffffffffffffff826132e5565b61332c86836132e5565b95508019841693508086168417925050509392505050565b6000819050919050565b600061336961336461335f84612858565b613344565b612858565b9050919050565b6000819050919050565b6133838361334e565b61339761338f82613370565b8484546132f2565b825550505050565b600090565b6133ac61339f565b6133b781848461337a565b505050565b5b818110156133db576133d06000826133a4565b6001810190506133bd565b5050565b601f821115613420576133f1816132c0565b6133fa846132d5565b81016020851015613409578190505b61341d613415856132d5565b8301826133bc565b50505b505050565b600082821c905092915050565b600061344360001984600802613425565b1980831691505092915050565b600061345c8383613432565b9150826002028217905092915050565b613475826129b3565b67ffffffffffffffff81111561348e5761348d612686565b5b613498825461328f565b6134a38282856133df565b600060209050601f8311600181146134d657600084156134c4578287015190505b6134ce8582613450565b865550613536565b601f1984166134e4866132c0565b60005b8281101561350c578489015182556001820191506020850194506020810190506134e7565b868310156135295784890151613525601f891682613432565b8355505b6001600288020188555050505b505050505050565b6135478161281a565b82525050565b6000604082019050613562600083018561353e565b61356f602083018461353e565b9392505050565b600060408201905061358b60008301856128ce565b61359860208301846128ce565b9392505050565b7f4e487b7100000000000000000000000000000000000000000000000000000000600052603260045260246000fd5b6000819050919050565b600067ffffffffffffffff82169050919050565b60006136076136026135fd846135ce565b613344565b6135d8565b9050919050565b613617816135ec565b82525050565b6000602082019050613632600083018461360e565b92915050565b7f50726f66696c6520616c72656164792065786973747300000000000000000000600082015250565b600061366e6016836129be565b915061367982613638565b602082019050919050565b6000602082019050818103600083015261369d81613661565b9050919050565b7f4e487b7100000000000000000000000000000000000000000000000000000000600052601160045260246000fd5b60006136de82612858565b91506136e983612858565b9250828201905080821115613701576137006136a4565b5b92915050565b600081905092915050565b600061371d826129b3565b6137278185613707565b93506137378185602086016129cf565b80840191505092915050565b600061374f8284613712565b915081905092915050565b7f536c756720616c72656164792074616b656e0000000000000000000000000000600082015250565b60006137906012836129be565b915061379b8261375a565b602082019050919050565b600060208201905081810360008301526137bf81613783565b9050919050565b60006020820190506137db600083018461353e565b92915050565b600081519050919050565b600082825260208201905092915050565b6000613808826137e1565b61381281856137ec565b93506138228185602086016129cf565b61382b81612675565b840191505092915050565b600060a08201905061384b600083018861353e565b613858602083018761353e565b61386560408301866128ce565b61387260608301856128ce565b818103608083015261388481846137fd565b90509695505050505050565b60008151905061389f81612924565b92915050565b6000602082840312156138bb576138ba612661565b5b60006138c984828501613890565b91505092915050565b600060a0820190506138e7600083018861353e565b6138f4602083018761353e565b81810360408301526139068186612f53565b9050818103606083015261391a8185612f53565b9050818103608083015261392e81846137fd565b90509695505050505050565b600060808201905061394f600083018761353e565b61395c60208301866128ce565b61396960408301856128ce565b61397660608301846128ce565b95945050505050565b600060408201905081810360008301526139998185612f53565b905081810360208301526139ad8184612f53565b9050939250505056fea2646970667358221220939db78df565b958e6e67221c93e5cc14f4ddecaa359394e253fd95d8a968d9c64736f6c634300081c0033",
  "linkReferences": {},
  "deployedLinkReferences": {}
}