{
  "_format": "hh-sol-artifact-1",
  "contractName": "LinkFar",
  "sourceName": "contracts/LinkFar.sol",
  "abi": [
    {
      "inputs": [],
      "stateMutability": "nonpayable",
      "type": "constructor"
    },
    {
      "inputs": [
        {
          "internalType": "address",
          "name": "sender",
          "type": "address"
        },
        {
          "internalType": "uint256",
          "name": "balance",
          "type": "uint256"
        },
        {
          "internalType": "uint256",
          "name": "needed",
          "type": "uint256"
        },
        {
          "internalType": "uint256",
          "name": "tokenId",
          "type": "uint256"
        }
      ],
      "name": "ERC1155InsufficientBalance",
      "type": "error"
    },
    {
      "inputs": [
        {
          "internalType": "address",
          "name": "approver",
          "type": "address"
        }
      ],
      "name": "ERC1155InvalidApprover",
      "type": "error"
    },
    {
      "inputs": [
        {
          "internalType": "uint256",
          "name": "idsLength",
          "type": "uint256"
        },
        {
          "internalType": "uint256",
          "name": "valuesLength",
          "type": "uint256"
        }
      ],
      "name": "ERC1155InvalidArrayLength",
      "type": "error"
    },
    {
      "inputs": [
        {
          "internalType": "address",
          "name": "operator",
          "type": "address"
        }
      ],
      "name": "ERC1155InvalidOperator",
      "type": "error"
    },
    {
      "inputs": [
        {
          "internalType": "address",
          "name": "receiver",
          "type": "address"
        }
      ],
      "name": "ERC1155InvalidReceiver",
      "type": "error"
    },
    {
      "inputs": [
        {
          "internalType": "address",
          "name": "sender",
          "type": "address"
        }
      ],
      "name": "ERC1155InvalidSender",
      "type": "error"
    },
    {
      "inputs": [
        {
          "internalType": "address",
          "name": "operator",
          "type": "address"
        },
        {
          "internalType": "address",
          "name": "owner",
          "type": "address"
        }
      ],
      "name": "ERC1155MissingApprovalForAll",
      "type": "error"
    },
    {
      "inputs": [],
      "name": "InvalidInitialization",
      "type": "error"
    },
    {
      "inputs": [],
      "name": "NotInitializing",
      "type": "error"
    },
    {
      "anonymous": false,
      "inputs": [
        {
          "indexed": true,
          "internalType": "address",
          "name": "account",
          "type": "address"
        },
        {
          "indexed": true,
          "internalType": "address",
          "name": "operator",
          "type": "address"
        },
        {
          "indexed": false,
          "internalType": "bool",
          "name": "approved",
          "type": "bool"
        }
      ],
      "name": "ApprovalForAll",
      "type": "event"
    },
    {
      "anonymous": false,
      "inputs": [
        {
          "indexed": false,
          "internalType": "uint64",
          "name": "version",
          "type": "uint64"
        }
      ],
      "name": "Initialized",
      "type": "event"
    },
    {
      "anonymous": false,
      "inputs": [
        {
          "indexed": true,
          "internalType": "uint256",
          "name": "id",
          "type": "uint256"
        },
        {
          "indexed": true,
          "internalType": "address",
          "name": "owner",
          "type": "address"
        }
      ],
      "name": "ProfileBurned",
      "type": "event"
    },
    {
      "anonymous": false,
      "inputs": [
        {
          "indexed": true,
          "internalType": "uint256",
          "name": "id",
          "type": "uint256"
        },
        {
          "indexed": true,
          "internalType": "address",
          "name": "owner",
          "type": "address"
        },
        {
          "indexed": false,
          "internalType": "string",
          "name": "uri",
          "type": "string"
        }
      ],
      "name": "ProfileChanged",
      "type": "event"
    },
    {
      "anonymous": false,
      "inputs": [
        {
          "indexed": true,
          "internalType": "uint256",
          "name": "id",
          "type": "uint256"
        },
        {
          "indexed": true,
          "internalType": "address",
          "name": "owner",
          "type": "address"
        },
        {
          "indexed": false,
          "internalType": "string",
          "name": "uri",
          "type": "string"
        }
      ],
      "name": "ProfileCreated",
      "type": "event"
    },
    {
      "anonymous": false,
      "inputs": [
        {
          "indexed": true,
          "internalType": "address",
          "name": "operator",
          "type": "address"
        },
        {
          "indexed": true,
          "internalType": "address",
          "name": "from",
          "type": "address"
        },
        {
          "indexed": true,
          "internalType": "address",
          "name": "to",
          "type": "address"
        },
        {
          "indexed": false,
          "internalType": "uint256[]",
          "name": "ids",
          "type": "uint256[]"
        },
        {
          "indexed": false,
          "internalType": "uint256[]",
          "name": "values",
          "type": "uint256[]"
        }
      ],
      "name": "TransferBatch",
      "type": "event"
    },
    {
      "anonymous": false,
      "inputs": [
        {
          "indexed": true,
          "internalType": "address",
          "name": "operator",
          "type": "address"
        },
        {
          "indexed": true,
          "internalType": "address",
          "name": "from",
          "type": "address"
        },
        {
          "indexed": true,
          "internalType": "address",
          "name": "to",
          "type": "address"
        },
        {
          "indexed": false,
          "internalType": "uint256",
          "name": "id",
          "type": "uint256"
        },
        {
          "indexed": false,
          "internalType": "uint256",
          "name": "value",
          "type": "uint256"
        }
      ],
      "name": "TransferSingle",
      "type": "event"
    },
    {
      "anonymous": false,
      "inputs": [
        {
          "indexed": false,
          "internalType": "string",
          "name": "value",
          "type": "string"
        },
        {
          "indexed": true,
          "internalType": "uint256",
          "name": "id",
          "type": "uint256"
        }
      ],
      "name": "URI",
      "type": "event"
    },
    {
      "inputs": [
        {
          "internalType": "address",
          "name": "account",
          "type": "address"
        },
        {
          "internalType": "uint256",
          "name": "id",
          "type": "uint256"
        }
      ],
      "name": "balanceOf",
      "outputs": [
        {
          "internalType": "uint256",
          "name": "",
          "type": "uint256"
        }
      ],
      "stateMutability": "view",
      "type": "function"
    },
    {
      "inputs": [
        {
          "internalType": "address[]",
          "name": "accounts",
          "type": "address[]"
        },
        {
          "internalType": "uint256[]",
          "name": "ids",
          "type": "uint256[]"
        }
      ],
      "name": "balanceOfBatch",
      "outputs": [
        {
          "internalType": "uint256[]",
          "name": "",
          "type": "uint256[]"
        }
      ],
      "stateMutability": "view",
      "type": "function"
    },
    {
      "inputs": [
        {
          "internalType": "address",
          "name": "account",
          "type": "address"
        },
        {
          "internalType": "uint256",
          "name": "id",
          "type": "uint256"
        },
        {
          "internalType": "uint256",
          "name": "value",
          "type": "uint256"
        }
      ],
      "name": "burn",
      "outputs": [],
      "stateMutability": "nonpayable",
      "type": "function"
    },
    {
      "inputs": [
        {
          "internalType": "address",
          "name": "",
          "type": "address"
        },
        {
          "internalType": "uint256[]",
          "name": "",
          "type": "uint256[]"
        },
        {
          "internalType": "uint256[]",
          "name": "",
          "type": "uint256[]"
        }
      ],
      "name": "burnBatch",
      "outputs": [],
      "stateMutability": "pure",
      "type": "function"
    },
    {
      "inputs": [],
      "name": "contractURI",
      "outputs": [
        {
          "internalType": "string",
          "name": "",
          "type": "string"
        }
      ],
      "stateMutability": "view",
      "type": "function"
    },
    {
      "inputs": [
        {
          "internalType": "address",
          "name": "_user",
          "type": "address"
        }
      ],
      "name": "getIdByAddress",
      "outputs": [
        {
          "internalType": "uint256",
          "name": "",
          "type": "uint256"
        }
      ],
      "stateMutability": "view",
      "type": "function"
    },
    {
      "inputs": [
        {
          "internalType": "address",
          "name": "_user",
          "type": "address"
        }
      ],
      "name": "getProfile",
      "outputs": [
        {
          "components": [
            {
              "internalType": "address",
              "name": "owner",
              "type": "address"
            },
            {
              "internalType": "string",
              "name": "uri",
              "type": "string"
            },
            {
              "internalType": "string",
              "name": "slug",
              "type": "string"
            }
          ],
          "internalType": "struct Profile",
          "name": "",
          "type": "tuple"
        }
      ],
      "stateMutability": "view",
      "type": "function"
    },
    {
      "inputs": [
        {
          "internalType": "string",
          "name": "_slug",
          "type": "string"
        }
      ],
      "name": "getProfileBySlug",
      "outputs": [
        {
          "components": [
            {
              "internalType": "address",
              "name": "owner",
              "type": "address"
            },
            {
              "internalType": "string",
              "name": "uri",
              "type": "string"
            },
            {
              "internalType": "string",
              "name": "slug",
              "type": "string"
            }
          ],
          "internalType": "struct Profile",
          "name": "",
          "type": "tuple"
        }
      ],
      "stateMutability": "view",
      "type": "function"
    },
    {
      "inputs": [],
      "name": "getVersion",
      "outputs": [
        {
          "internalType": "string",
          "name": "",
          "type": "string"
        }
      ],
      "stateMutability": "pure",
      "type": "function"
    },
    {
      "inputs": [],
      "name": "initialize",
      "outputs": [],
      "stateMutability": "nonpayable",
      "type": "function"
    },
    {
      "inputs": [
        {
          "internalType": "address",
          "name": "account",
          "type": "address"
        },
        {
          "internalType": "address",
          "name": "operator",
          "type": "address"
        }
      ],
      "name": "isApprovedForAll",
      "outputs": [
        {
          "internalType": "bool",
          "name": "",
          "type": "bool"
        }
      ],
      "stateMutability": "view",
      "type": "function"
    },
    {
      "inputs": [
        {
          "internalType": "string",
          "name": "_uri",
          "type": "string"
        }
      ],
      "name": "mint",
      "outputs": [
        {
          "internalType": "uint256",
          "name": "",
          "type": "uint256"
        }
      ],
      "stateMutability": "nonpayable",
      "type": "function"
    },
    {
      "inputs": [],
      "name": "name",
      "outputs": [
        {
          "internalType": "string",
          "name": "",
          "type": "string"
        }
      ],
      "stateMutability": "view",
      "type": "function"
    },
    {
      "inputs": [
        {
          "internalType": "address",
          "name": "",
          "type": "address"
        },
        {
          "internalType": "address",
          "name": "",
          "type": "address"
        },
        {
          "internalType": "uint256[]",
          "name": "",
          "type": "uint256[]"
        },
        {
          "internalType": "uint256[]",
          "name": "",
          "type": "uint256[]"
        },
        {
          "internalType": "bytes",
          "name": "",
          "type": "bytes"
        }
      ],
      "name": "safeBatchTransferFrom",
      "outputs": [],
      "stateMutability": "pure",
      "type": "function"
    },
    {
      "inputs": [
        {
          "internalType": "address",
          "name": "from",
          "type": "address"
        },
        {
          "internalType": "address",
          "name": "to",
          "type": "address"
        },
        {
          "internalType": "uint256",
          "name": "id",
          "type": "uint256"
        },
        {
          "internalType": "uint256",
          "name": "value",
          "type": "uint256"
        },
        {
          "internalType": "bytes",
          "name": "",
          "type": "bytes"
        }
      ],
      "name": "safeTransferFrom",
      "outputs": [],
      "stateMutability": "nonpayable",
      "type": "function"
    },
    {
      "inputs": [
        {
          "internalType": "address",
          "name": "operator",
          "type": "address"
        },
        {
          "internalType": "bool",
          "name": "approved",
          "type": "bool"
        }
      ],
      "name": "setApprovalForAll",
      "outputs": [],
      "stateMutability": "nonpayable",
      "type": "function"
    },
    {
      "inputs": [
        {
          "internalType": "string",
          "name": "_slug",
          "type": "string"
        }
      ],
      "name": "setSlug",
      "outputs": [],
      "stateMutability": "nonpayable",
      "type": "function"
    },
    {
      "inputs": [
        {
          "internalType": "bytes4",
          "name": "interfaceId",
          "type": "bytes4"
        }
      ],
      "name": "supportsInterface",
      "outputs": [
        {
          "internalType": "bool",
          "name": "",
          "type": "bool"
        }
      ],
      "stateMutability": "view",
      "type": "function"
    },
    {
      "inputs": [],
      "name": "totalMinted",
      "outputs": [
        {
          "internalType": "uint256",
          "name": "",
          "type": "uint256"
        }
      ],
      "stateMutability": "view",
      "type": "function"
    },
    {
      "inputs": [],
      "name": "totalSupply",
      "outputs": [
        {
          "internalType": "uint256",
          "name": "",
          "type": "uint256"
        }
      ],
      "stateMutability": "view",
      "type": "function"
    },
    {
      "inputs": [
        {
          "internalType": "string",
          "name": "_uri",
          "type": "string"
        }
      ],
      "name": "updateProfile",
      "outputs": [],
      "stateMutability": "nonpayable",
      "type": "function"
    },
    {
      "inputs": [
        {
          "internalType": "uint256",
          "name": "tokenId",
          "type": "uint256"
        }
      ],
      "name": "uri",
      "outputs": [
        {
          "internalType": "string",
          "name": "",
          "type": "string"
        }
      ],
      "stateMutability": "view",
      "type": "function"
    }
  ],
  "bytecode": "0x608060405234801561001057600080fd5b5061001f61002460201b60201c565b61018e565b600061003461012860201b60201c565b90508060000160089054906101000a900460ff161561007f576040517ff92ee8a900000000000000000000000000000000000000000000000000000000815260040160405180910390fd5b67ffffffffffffffff80168160000160009054906101000a900467ffffffffffffffff1667ffffffffffffffff16146101255767ffffffffffffffff8160000160006101000a81548167ffffffffffffffff021916908367ffffffffffffffff1602179055507fc7f505b2f371ae2175ee4913f4499e1f2633a7b5936321eed1cdaeb6115181d267ffffffffffffffff60405161011c9190610173565b60405180910390a15b50565b60007ff0c57e16840df040f15088dc2f81fe391c3923bec73e23a9662efc9c229c6a00905090565b600067ffffffffffffffff82169050919050565b61016d81610150565b82525050565b60006020820190506101886000830184610164565b92915050565b6144da8061019d6000396000f3fe608060405234801561001057600080fd5b50600436106101405760003560e01c80638129fc1c116100b8578063de91375d1161007c578063de91375d14610387578063dff3b497146103a3578063e8a3d485146103d3578063e985e9c5146103f1578063f242432a14610421578063f5298aca1461043d57610140565b80638129fc1c146102e3578063a22cb465146102ed578063a2309ff814610309578063d85d3d2714610327578063db0297d91461035757610140565b80630e89341c1161010a5780630e89341c146101fd5780630f53a4701461022d57806318160ddd1461025d5780632eb2c2d61461027b5780634e1273f4146102975780636b20c454146102c757610140565b80629299e314610145578062fdd58e1461016157806301ffc9a71461019157806306fdde03146101c15780630d8e6e2c146101df575b600080fd5b61015f600480360381019061015a9190612e8a565b610459565b005b61017b60048036038101906101769190612f67565b610596565b6040516101889190612fb6565b60405180910390f35b6101ab60048036038101906101a69190613029565b6105ff565b6040516101b89190613071565b60405180910390f35b6101c96106e1565b6040516101d6919061310b565b60405180910390f35b6101e7610773565b6040516101f4919061310b565b60405180910390f35b6102176004803603810190610212919061312d565b6107b0565b604051610224919061310b565b60405180910390f35b6102476004803603810190610242919061315a565b610858565b6040516102549190613237565b60405180910390f35b610265610a44565b6040516102729190612fb6565b60405180910390f35b610295600480360381019061029091906133c2565b610a4e565b005b6102b160048036038101906102ac9190613554565b610a89565b6040516102be919061368a565b60405180910390f35b6102e160048036038101906102dc91906136ac565b610b92565b005b6102eb610bcd565b005b61030760048036038101906103029190613763565b610e33565b005b610311610e49565b60405161031e9190612fb6565b60405180910390f35b610341600480360381019061033c9190612e8a565b610e5f565b60405161034e9190612fb6565b60405180910390f35b610371600480360381019061036c9190612e8a565b611028565b60405161037e9190613237565b60405180910390f35b6103a1600480360381019061039c9190612e8a565b611263565b005b6103bd60048036038101906103b8919061315a565b6113eb565b6040516103ca9190612fb6565b60405180910390f35b6103db611434565b6040516103e8919061310b565b60405180910390f35b61040b600480360381019061040691906137a3565b6114c6565b6040516104189190613071565b60405180910390f35b61043b600480360381019061043691906137e3565b611568565b005b6104576004803603810190610452919061387a565b611768565b005b6000600560003373ffffffffffffffffffffffffffffffffffffffff1673ffffffffffffffffffffffffffffffffffffffff16815260200190815260200160002054036104db576040517f08c379a00000000000000000000000000000000000000000000000000000000081526004016104d290613919565b60405180910390fd5b6000600560003373ffffffffffffffffffffffffffffffffffffffff1673ffffffffffffffffffffffffffffffffffffffff168152602001908152602001600020549050816004600083815260200190815260200160002060010190816105429190613b45565b503373ffffffffffffffffffffffffffffffffffffffff16817fe11c3ae58a036068fd0179bf17d3fdf99972e1c38ac40c6e8d9d30e5aa30b7b38460405161058a919061310b565b60405180910390a35050565b6000806105a1611b01565b905080600001600084815260200190815260200160002060008573ffffffffffffffffffffffffffffffffffffffff1673ffffffffffffffffffffffffffffffffffffffff1681526020019081526020016000205491505092915050565b60007fd9b67a26000000000000000000000000000000000000000000000000000000007bffffffffffffffffffffffffffffffffffffffffffffffffffffffff1916827bffffffffffffffffffffffffffffffffffffffffffffffffffffffff191614806106ca57507f0e89341c000000000000000000000000000000000000000000000000000000007bffffffffffffffffffffffffffffffffffffffffffffffffffffffff1916827bffffffffffffffffffffffffffffffffffffffffffffffffffffffff1916145b806106da57506106d982611b29565b5b9050919050565b6060600280546106f090613968565b80601f016020809104026020016040519081016040528092919081815260200182805461071c90613968565b80156107695780601f1061073e57610100808354040283529160200191610769565b820191906000526020600020905b81548152906001019060200180831161074c57829003601f168201915b5050505050905090565b60606040518060400160405280600581526020017f302e302e31000000000000000000000000000000000000000000000000000000815250905090565b60606004600083815260200190815260200160002060010180546107d390613968565b80601f01602080910402602001604051908101604052809291908181526020018280546107ff90613968565b801561084c5780601f106108215761010080835404028352916020019161084c565b820191906000526020600020905b81548152906001019060200180831161082f57829003601f168201915b50505050509050919050565b610860612c9c565b6000600560008473ffffffffffffffffffffffffffffffffffffffff1673ffffffffffffffffffffffffffffffffffffffff168152602001908152602001600020549050600460008281526020019081526020016000206040518060600160405290816000820160009054906101000a900473ffffffffffffffffffffffffffffffffffffffff1673ffffffffffffffffffffffffffffffffffffffff1673ffffffffffffffffffffffffffffffffffffffff16815260200160018201805461092890613968565b80601f016020809104026020016040519081016040528092919081815260200182805461095490613968565b80156109a15780601f10610976576101008083540402835291602001916109a1565b820191906000526020600020905b81548152906001019060200180831161098457829003601f168201915b505050505081526020016002820180546109ba90613968565b80601f01602080910402602001604051908101604052809291908181526020018280546109e690613968565b8015610a335780601f10610a0857610100808354040283529160200191610a33565b820191906000526020600020905b815481529060010190602001808311610a1657829003601f168201915b505050505081525050915050919050565b6000600154905090565b6040517f08c379a0000000000000000000000000000000000000000000000000000000008152600401610a8090613c63565b60405180910390fd5b60608151835114610ad557815183516040517f5b059991000000000000000000000000000000000000000000000000000000008152600401610acc929190613c83565b60405180910390fd5b6000835167ffffffffffffffff811115610af257610af1612d5f565b5b604051908082528060200260200182016040528015610b205781602001602082028036833780820191505090505b50905060005b8451811015610b8757610b5d610b458287611b9390919063ffffffff16565b610b588387611ba790919063ffffffff16565b610596565b828281518110610b7057610b6f613cac565b5b602002602001018181525050806001019050610b26565b508091505092915050565b6040517f08c379a0000000000000000000000000000000000000000000000000000000008152600401610bc490613d27565b60405180910390fd5b6000610bd7611bbb565b905060008160000160089054906101000a900460ff1615905060008260000160009054906101000a900467ffffffffffffffff1690506000808267ffffffffffffffff16148015610c255750825b9050600060018367ffffffffffffffff16148015610c5a575060003073ffffffffffffffffffffffffffffffffffffffff163b145b905081158015610c68575080155b15610c9f576040517ff92ee8a900000000000000000000000000000000000000000000000000000000815260040160405180910390fd5b60018560000160006101000a81548167ffffffffffffffff021916908367ffffffffffffffff1602179055508315610cef5760018560000160086101000a81548160ff0219169083151502179055505b6000805414610d33576040517f08c379a0000000000000000000000000000000000000000000000000000000008152600401610d2a90613d93565b60405180910390fd5b610d4b60405180602001604052806000815250611be3565b610d53611bf7565b600160008190555060006001819055506040518060400160405280600781526020017f4c696e6b4661720000000000000000000000000000000000000000000000000081525060029081610da79190613b45565b506040518060800160405280604281526020016144636042913960039081610dcf9190613b45565b508315610e2c5760008560000160086101000a81548160ff0219169083151502179055507fc7f505b2f371ae2175ee4913f4499e1f2633a7b5936321eed1cdaeb6115181d26001604051610e239190613e02565b60405180910390a15b5050505050565b610e45610e3e611c01565b8383611c09565b5050565b60006001600054610e5a9190613e4c565b905090565b6000610e69611d88565b6000805490506001600080828254610e819190613e80565b925050819055506001806000828254610e9a9190613e80565b92505081905550600060405180606001604052803373ffffffffffffffffffffffffffffffffffffffff168152602001858152602001604051806020016040528060008152508152509050806004600084815260200190815260200160002060008201518160000160006101000a81548173ffffffffffffffffffffffffffffffffffffffff021916908373ffffffffffffffffffffffffffffffffffffffff1602179055506020820151816001019081610f559190613b45565b506040820151816002019081610f6b9190613b45565b5090505081600560003373ffffffffffffffffffffffffffffffffffffffff1673ffffffffffffffffffffffffffffffffffffffff16815260200190815260200160002081905550610fcf3383600160405180602001604052806000815250611e0c565b3373ffffffffffffffffffffffffffffffffffffffff16827f64849d9017ccd37161417597e9733299a671f98dcb0907422672a2e159eb121786604051611016919061310b565b60405180910390a38192505050919050565b611030612c9c565b600061103b83611ea5565b9050600060068260405161104f9190613ef0565b9081526020016040518091039020549050600081036110c1576040518060600160405280600073ffffffffffffffffffffffffffffffffffffffff168152602001604051806020016040528060008152508152602001604051806020016040528060008152508152509250505061125e565b600460008281526020019081526020016000206040518060600160405290816000820160009054906101000a900473ffffffffffffffffffffffffffffffffffffffff1673ffffffffffffffffffffffffffffffffffffffff1673ffffffffffffffffffffffffffffffffffffffff16815260200160018201805461114590613968565b80601f016020809104026020016040519081016040528092919081815260200182805461117190613968565b80156111be5780601f10611193576101008083540402835291602001916111be565b820191906000526020600020905b8154815290600101906020018083116111a157829003601f168201915b505050505081526020016002820180546111d790613968565b80601f016020809104026020016040519081016040528092919081815260200182805461120390613968565b80156112505780601f1061122557610100808354040283529160200191611250565b820191906000526020600020905b81548152906001019060200180831161123357829003601f168201915b505050505081525050925050505b919050565b61126b611fdd565b600061127682611ea5565b905061128181612061565b6000600560003373ffffffffffffffffffffffffffffffffffffffff1673ffffffffffffffffffffffffffffffffffffffff1681526020019081526020016000205490506112ce81612112565b60006004600083815260200190815260200160002060020180546112f190613968565b80601f016020809104026020016040519081016040528092919081815260200182805461131d90613968565b801561136a5780601f1061133f5761010080835404028352916020019161136a565b820191906000526020600020905b81548152906001019060200180831161134d57829003601f168201915b5050505050905060008151111561139e5760068160405161138b9190613ef0565b9081526020016040518091039020600090555b816006846040516113af9190613ef0565b908152602001604051809103902081905550826004600084815260200190815260200160002060020190816113e49190613b45565b5050505050565b6000600560008373ffffffffffffffffffffffffffffffffffffffff1673ffffffffffffffffffffffffffffffffffffffff168152602001908152602001600020549050919050565b60606003805461144390613968565b80601f016020809104026020016040519081016040528092919081815260200182805461146f90613968565b80156114bc5780601f10611491576101008083540402835291602001916114bc565b820191906000526020600020905b81548152906001019060200180831161149f57829003601f168201915b5050505050905090565b6000806114d1611b01565b90508060010160008573ffffffffffffffffffffffffffffffffffffffff1673ffffffffffffffffffffffffffffffffffffffff16815260200190815260200160002060008473ffffffffffffffffffffffffffffffffffffffff1673ffffffffffffffffffffffffffffffffffffffff16815260200190815260200160002060009054906101000a900460ff1691505092915050565b61157183612112565b3373ffffffffffffffffffffffffffffffffffffffff168573ffffffffffffffffffffffffffffffffffffffff16146115df576040517f08c379a00000000000000000000000000000000000000000000000000000000081526004016115d690613f79565b60405180910390fd5b60018214611622576040517f08c379a000000000000000000000000000000000000000000000000000000000815260040161161990613fe5565b60405180910390fd5b600073ffffffffffffffffffffffffffffffffffffffff168473ffffffffffffffffffffffffffffffffffffffff160361166657611661858484611768565b611761565b6000600560008773ffffffffffffffffffffffffffffffffffffffff1673ffffffffffffffffffffffffffffffffffffffff1681526020019081526020016000208190555082600560008673ffffffffffffffffffffffffffffffffffffffff1673ffffffffffffffffffffffffffffffffffffffff16815260200190815260200160002081905550836004600085815260200190815260200160002060000160006101000a81548173ffffffffffffffffffffffffffffffffffffffff021916908373ffffffffffffffffffffffffffffffffffffffff160217905550611760858585856040518060200160405280600081525061223a565b5b5050505050565b61177182612112565b3373ffffffffffffffffffffffffffffffffffffffff168373ffffffffffffffffffffffffffffffffffffffff16146117df576040517f08c379a00000000000000000000000000000000000000000000000000000000081526004016117d690614051565b60405180910390fd5b60018114611822576040517f08c379a000000000000000000000000000000000000000000000000000000000815260040161181990613fe5565b60405180910390fd5b6000600460008481526020019081526020016000206040518060600160405290816000820160009054906101000a900473ffffffffffffffffffffffffffffffffffffffff1673ffffffffffffffffffffffffffffffffffffffff1673ffffffffffffffffffffffffffffffffffffffff1681526020016001820180546118a890613968565b80601f01602080910402602001604051908101604052809291908181526020018280546118d490613968565b80156119215780601f106118f657610100808354040283529160200191611921565b820191906000526020600020905b81548152906001019060200180831161190457829003601f168201915b5050505050815260200160028201805461193a90613968565b80601f016020809104026020016040519081016040528092919081815260200182805461196690613968565b80156119b35780601f10611988576101008083540402835291602001916119b3565b820191906000526020600020905b81548152906001019060200180831161199657829003601f168201915b505050505081525050905060046000848152602001908152602001600020600080820160006101000a81549073ffffffffffffffffffffffffffffffffffffffff0219169055600182016000611a099190612cd3565b600282016000611a199190612cd3565b5050600560003373ffffffffffffffffffffffffffffffffffffffff1673ffffffffffffffffffffffffffffffffffffffff1681526020019081526020016000206000905560008160400151511115611a935760068160400151604051611a809190613ef0565b9081526020016040518091039020600090555b6001806000828254611aa59190613e4c565b92505081905550611ab7848484612345565b3373ffffffffffffffffffffffffffffffffffffffff16837fa7659c32a43f2ffbf06162724a8547dd209ed0a720f0e6db14c2473e76da2eb960405160405180910390a350505050565b60007f88be536d5240c274a3b1d3a1be54482fd9caa294f08c62a7cde569f49a3c4500905090565b60007f01ffc9a7000000000000000000000000000000000000000000000000000000007bffffffffffffffffffffffffffffffffffffffffffffffffffffffff1916827bffffffffffffffffffffffffffffffffffffffffffffffffffffffff1916149050919050565b600060208202602084010151905092915050565b600060208202602084010151905092915050565b60007ff0c57e16840df040f15088dc2f81fe391c3923bec73e23a9662efc9c229c6a00905090565b611beb6123ec565b611bf48161242c565b50565b611bff6123ec565b565b600033905090565b6000611c13611b01565b9050600073ffffffffffffffffffffffffffffffffffffffff168373ffffffffffffffffffffffffffffffffffffffff1603611c875760006040517fced3e100000000000000000000000000000000000000000000000000000000008152600401611c7e9190614080565b60405180910390fd5b818160010160008673ffffffffffffffffffffffffffffffffffffffff1673ffffffffffffffffffffffffffffffffffffffff16815260200190815260200160002060008573ffffffffffffffffffffffffffffffffffffffff1673ffffffffffffffffffffffffffffffffffffffff16815260200190815260200160002060006101000a81548160ff0219169083151502179055508273ffffffffffffffffffffffffffffffffffffffff168473ffffffffffffffffffffffffffffffffffffffff167f17307eab39ab6107e8899845ad3d59bd9653f200f220920489ca2b5937696c3184604051611d7a9190613071565b60405180910390a350505050565b6000600560003373ffffffffffffffffffffffffffffffffffffffff1673ffffffffffffffffffffffffffffffffffffffff1681526020019081526020016000205414611e0a576040517f08c379a0000000000000000000000000000000000000000000000000000000008152600401611e01906140e7565b60405180910390fd5b565b600073ffffffffffffffffffffffffffffffffffffffff168473ffffffffffffffffffffffffffffffffffffffff1603611e7e5760006040517f57f447ce000000000000000000000000000000000000000000000000000000008152600401611e759190614080565b60405180910390fd5b600080611e8b8585612440565b91509150611e9d600087848487612470565b505050505050565b6060600082905060005b8151811015611fd357604160f81b828281518110611ed057611ecf613cac565b5b602001015160f81c60f81b7effffffffffffffffffffffffffffffffffffffffffffffffffffffffffffff191610158015611f4e5750605a60f81b828281518110611f1e57611f1d613cac565b5b602001015160f81c60f81b7effffffffffffffffffffffffffffffffffffffffffffffffffffffffffffff191611155b15611fc6576020828281518110611f6857611f67613cac565b5b602001015160f81c60f81b60f81c611f809190614114565b60f81b828281518110611f9657611f95613cac565b5b60200101907effffffffffffffffffffffffffffffffffffffffffffffffffffffffffffff1916908160001a9053505b8080600101915050611eaf565b5080915050919050565b6000600560003373ffffffffffffffffffffffffffffffffffffffff1673ffffffffffffffffffffffffffffffffffffffff168152602001908152602001600020540361205f576040517f08c379a000000000000000000000000000000000000000000000000000000000815260040161205690613919565b60405180910390fd5b565b60006006826040516120739190613ef0565b90815260200160405180910390205490506000811461210e57600560003373ffffffffffffffffffffffffffffffffffffffff1673ffffffffffffffffffffffffffffffffffffffff16815260200190815260200160002054811461210d576040517f08c379a000000000000000000000000000000000000000000000000000000000815260040161210490614195565b60405180910390fd5b5b5050565b3373ffffffffffffffffffffffffffffffffffffffff166004600083815260200190815260200160002060000160009054906101000a900473ffffffffffffffffffffffffffffffffffffffff1673ffffffffffffffffffffffffffffffffffffffff16146121b6576040517f08c379a00000000000000000000000000000000000000000000000000000000081526004016121ad90614201565b60405180910390fd5b80600560003373ffffffffffffffffffffffffffffffffffffffff1673ffffffffffffffffffffffffffffffffffffffff1681526020019081526020016000205414612237576040517f08c379a000000000000000000000000000000000000000000000000000000000815260040161222e9061426d565b60405180910390fd5b50565b600073ffffffffffffffffffffffffffffffffffffffff168473ffffffffffffffffffffffffffffffffffffffff16036122ac5760006040517f57f447ce0000000000000000000000000000000000000000000000000000000081526004016122a39190614080565b60405180910390fd5b600073ffffffffffffffffffffffffffffffffffffffff168573ffffffffffffffffffffffffffffffffffffffff160361231e5760006040517f01a835140000000000000000000000000000000000000000000000000000000081526004016123159190614080565b60405180910390fd5b60008061232b8585612440565b9150915061233c8787848487612470565b50505050505050565b600073ffffffffffffffffffffffffffffffffffffffff168373ffffffffffffffffffffffffffffffffffffffff16036123b75760006040517f01a835140000000000000000000000000000000000000000000000000000000081526004016123ae9190614080565b60405180910390fd5b6000806123c48484612440565b915091506123e5856000848460405180602001604052806000815250612470565b5050505050565b6123f4612522565b61242a576040517fd7e6bcf800000000000000000000000000000000000000000000000000000000815260040160405180910390fd5b565b6124346123ec565b61243d81612542565b50565b60608060405191506001825283602083015260408201905060018152826020820152604081016040529250929050565b61247c85858585612564565b600073ffffffffffffffffffffffffffffffffffffffff168473ffffffffffffffffffffffffffffffffffffffff161461251b5760006124ba611c01565b9050600184510361250a5760006124db600086611ba790919063ffffffff16565b905060006124f3600086611ba790919063ffffffff16565b9050612503838989858589612576565b5050612519565b61251881878787878761272a565b5b505b5050505050565b600061252c611bbb565b60000160089054906101000a900460ff16905090565b600061254c611b01565b90508181600201908161255f9190613b45565b505050565b612570848484846128de565b50505050565b60008473ffffffffffffffffffffffffffffffffffffffff163b1115612722578373ffffffffffffffffffffffffffffffffffffffff1663f23a6e6187878686866040518663ffffffff1660e01b81526004016125d79594939291906142e2565b6020604051808303816000875af192505050801561261357506040513d601f19601f820116820180604052508101906126109190614351565b60015b612697573d8060008114612643576040519150601f19603f3d011682016040523d82523d6000602084013e612648565b606091505b50600081510361268f57846040517f57f447ce0000000000000000000000000000000000000000000000000000000081526004016126869190614080565b60405180910390fd5b805181602001fd5b63f23a6e6160e01b7bffffffffffffffffffffffffffffffffffffffffffffffffffffffff1916817bffffffffffffffffffffffffffffffffffffffffffffffffffffffff19161461272057846040517f57f447ce0000000000000000000000000000000000000000000000000000000081526004016127179190614080565b60405180910390fd5b505b505050505050565b60008473ffffffffffffffffffffffffffffffffffffffff163b11156128d6578373ffffffffffffffffffffffffffffffffffffffff1663bc197c8187878686866040518663ffffffff1660e01b815260040161278b95949392919061437e565b6020604051808303816000875af19250505080156127c757506040513d601f19601f820116820180604052508101906127c49190614351565b60015b61284b573d80600081146127f7576040519150601f19603f3d011682016040523d82523d6000602084013e6127fc565b606091505b50600081510361284357846040517f57f447ce00000000000000000000000000000000000000000000000000000000815260040161283a9190614080565b60405180910390fd5b805181602001fd5b63bc197c8160e01b7bffffffffffffffffffffffffffffffffffffffffffffffffffffffff1916817bffffffffffffffffffffffffffffffffffffffffffffffffffffffff1916146128d457846040517f57f447ce0000000000000000000000000000000000000000000000000000000081526004016128cb9190614080565b60405180910390fd5b505b505050505050565b60006128e8611b01565b9050815183511461293457825182516040517f5b05999100000000000000000000000000000000000000000000000000000000815260040161292b929190613c83565b60405180910390fd5b600061293e611c01565b905060005b8451811015612b565760006129618287611ba790919063ffffffff16565b905060006129788387611ba790919063ffffffff16565b9050600073ffffffffffffffffffffffffffffffffffffffff168973ffffffffffffffffffffffffffffffffffffffff1614612aab57600085600001600084815260200190815260200160002060008b73ffffffffffffffffffffffffffffffffffffffff1673ffffffffffffffffffffffffffffffffffffffff16815260200190815260200160002054905081811015612a5057898183856040517f03dee4c5000000000000000000000000000000000000000000000000000000008152600401612a4794939291906143e6565b60405180910390fd5b81810386600001600085815260200190815260200160002060008c73ffffffffffffffffffffffffffffffffffffffff1673ffffffffffffffffffffffffffffffffffffffff16815260200190815260200160002081905550505b600073ffffffffffffffffffffffffffffffffffffffff168873ffffffffffffffffffffffffffffffffffffffff1614612b49578085600001600084815260200190815260200160002060008a73ffffffffffffffffffffffffffffffffffffffff1673ffffffffffffffffffffffffffffffffffffffff1681526020019081526020016000206000828254612b419190613e80565b925050819055505b5050806001019050612943565b506001845103612c15576000612b76600086611ba790919063ffffffff16565b90506000612b8e600086611ba790919063ffffffff16565b90508673ffffffffffffffffffffffffffffffffffffffff168873ffffffffffffffffffffffffffffffffffffffff168473ffffffffffffffffffffffffffffffffffffffff167fc3d58168c5ae7397731d063d5bbf3d657854427343f4c083240f7aacaa2d0f628585604051612c06929190613c83565b60405180910390a45050612c94565b8473ffffffffffffffffffffffffffffffffffffffff168673ffffffffffffffffffffffffffffffffffffffff168273ffffffffffffffffffffffffffffffffffffffff167f4a39dc06d4c0dbc64b70af90fd698a233a518aa5d07e595d983b8c0526c8f7fb8787604051612c8b92919061442b565b60405180910390a45b505050505050565b6040518060600160405280600073ffffffffffffffffffffffffffffffffffffffff16815260200160608152602001606081525090565b508054612cdf90613968565b6000825580601f10612cf15750612d10565b601f016020900490600052602060002090810190612d0f9190612d13565b5b50565b5b80821115612d2c576000816000905550600101612d14565b5090565b6000604051905090565b600080fd5b600080fd5b600080fd5b600080fd5b6000601f19601f8301169050919050565b7f4e487b7100000000000000000000000000000000000000000000000000000000600052604160045260246000fd5b612d9782612d4e565b810181811067ffffffffffffffff82111715612db657612db5612d5f565b5b80604052505050565b6000612dc9612d30565b9050612dd58282612d8e565b919050565b600067ffffffffffffffff821115612df557612df4612d5f565b5b612dfe82612d4e565b9050602081019050919050565b82818337600083830152505050565b6000612e2d612e2884612dda565b612dbf565b905082815260208101848484011115612e4957612e48612d49565b5b612e54848285612e0b565b509392505050565b600082601f830112612e7157612e70612d44565b5b8135612e81848260208601612e1a565b91505092915050565b600060208284031215612ea057612e9f612d3a565b5b600082013567ffffffffffffffff811115612ebe57612ebd612d3f565b5b612eca84828501612e5c565b91505092915050565b600073ffffffffffffffffffffffffffffffffffffffff82169050919050565b6000612efe82612ed3565b9050919050565b612f0e81612ef3565b8114612f1957600080fd5b50565b600081359050612f2b81612f05565b92915050565b6000819050919050565b612f4481612f31565b8114612f4f57600080fd5b50565b600081359050612f6181612f3b565b92915050565b60008060408385031215612f7e57612f7d612d3a565b5b6000612f8c85828601612f1c565b9250506020612f9d85828601612f52565b9150509250929050565b612fb081612f31565b82525050565b6000602082019050612fcb6000830184612fa7565b92915050565b60007fffffffff0000000000000000000000000000000000000000000000000000000082169050919050565b61300681612fd1565b811461301157600080fd5b50565b60008135905061302381612ffd565b92915050565b60006020828403121561303f5761303e612d3a565b5b600061304d84828501613014565b91505092915050565b60008115159050919050565b61306b81613056565b82525050565b60006020820190506130866000830184613062565b92915050565b600081519050919050565b600082825260208201905092915050565b60005b838110156130c65780820151818401526020810190506130ab565b60008484015250505050565b60006130dd8261308c565b6130e78185613097565b93506130f78185602086016130a8565b61310081612d4e565b840191505092915050565b6000602082019050818103600083015261312581846130d2565b905092915050565b60006020828403121561314357613142612d3a565b5b600061315184828501612f52565b91505092915050565b6000602082840312156131705761316f612d3a565b5b600061317e84828501612f1c565b91505092915050565b61319081612ef3565b82525050565b600082825260208201905092915050565b60006131b28261308c565b6131bc8185613196565b93506131cc8185602086016130a8565b6131d581612d4e565b840191505092915050565b60006060830160008301516131f86000860182613187565b506020830151848203602086015261321082826131a7565b9150506040830151848203604086015261322a82826131a7565b9150508091505092915050565b6000602082019050818103600083015261325181846131e0565b905092915050565b600067ffffffffffffffff82111561327457613273612d5f565b5b602082029050602081019050919050565b600080fd5b600061329d61329884613259565b612dbf565b905080838252602082019050602084028301858111156132c0576132bf613285565b5b835b818110156132e957806132d58882612f52565b8452602084019350506020810190506132c2565b5050509392505050565b600082601f83011261330857613307612d44565b5b813561331884826020860161328a565b91505092915050565b600067ffffffffffffffff82111561333c5761333b612d5f565b5b61334582612d4e565b9050602081019050919050565b600061336561336084613321565b612dbf565b90508281526020810184848401111561338157613380612d49565b5b61338c848285612e0b565b509392505050565b600082601f8301126133a9576133a8612d44565b5b81356133b9848260208601613352565b91505092915050565b600080600080600060a086880312156133de576133dd612d3a565b5b60006133ec88828901612f1c565b95505060206133fd88828901612f1c565b945050604086013567ffffffffffffffff81111561341e5761341d612d3f565b5b61342a888289016132f3565b935050606086013567ffffffffffffffff81111561344b5761344a612d3f565b5b613457888289016132f3565b925050608086013567ffffffffffffffff81111561347857613477612d3f565b5b61348488828901613394565b9150509295509295909350565b600067ffffffffffffffff8211156134ac576134ab612d5f565b5b602082029050602081019050919050565b60006134d06134cb84613491565b612dbf565b905080838252602082019050602084028301858111156134f3576134f2613285565b5b835b8181101561351c57806135088882612f1c565b8452602084019350506020810190506134f5565b5050509392505050565b600082601f83011261353b5761353a612d44565b5b813561354b8482602086016134bd565b91505092915050565b6000806040838503121561356b5761356a612d3a565b5b600083013567ffffffffffffffff81111561358957613588612d3f565b5b61359585828601613526565b925050602083013567ffffffffffffffff8111156135b6576135b5612d3f565b5b6135c2858286016132f3565b9150509250929050565b600081519050919050565b600082825260208201905092915050565b6000819050602082019050919050565b61360181612f31565b82525050565b600061361383836135f8565b60208301905092915050565b6000602082019050919050565b6000613637826135cc565b61364181856135d7565b935061364c836135e8565b8060005b8381101561367d5781516136648882613607565b975061366f8361361f565b925050600181019050613650565b5085935050505092915050565b600060208201905081810360008301526136a4818461362c565b905092915050565b6000806000606084860312156136c5576136c4612d3a565b5b60006136d386828701612f1c565b935050602084013567ffffffffffffffff8111156136f4576136f3612d3f565b5b613700868287016132f3565b925050604084013567ffffffffffffffff81111561372157613720612d3f565b5b61372d868287016132f3565b9150509250925092565b61374081613056565b811461374b57600080fd5b50565b60008135905061375d81613737565b92915050565b6000806040838503121561377a57613779612d3a565b5b600061378885828601612f1c565b92505060206137998582860161374e565b9150509250929050565b600080604083850312156137ba576137b9612d3a565b5b60006137c885828601612f1c565b92505060206137d985828601612f1c565b9150509250929050565b600080600080600060a086880312156137ff576137fe612d3a565b5b600061380d88828901612f1c565b955050602061381e88828901612f1c565b945050604061382f88828901612f52565b935050606061384088828901612f52565b925050608086013567ffffffffffffffff81111561386157613860612d3f565b5b61386d88828901613394565b9150509295509295909350565b60008060006060848603121561389357613892612d3a565b5b60006138a186828701612f1c565b93505060206138b286828701612f52565b92505060406138c386828701612f52565b9150509250925092565b7f50726f66696c6520646f6573206e6f7420657869737400000000000000000000600082015250565b6000613903601683613097565b915061390e826138cd565b602082019050919050565b60006020820190508181036000830152613932816138f6565b9050919050565b7f4e487b7100000000000000000000000000000000000000000000000000000000600052602260045260246000fd5b6000600282049050600182168061398057607f821691505b60208210810361399357613992613939565b5b50919050565b60008190508160005260206000209050919050565b60006020601f8301049050919050565b600082821b905092915050565b6000600883026139fb7fffffffffffffffffffffffffffffffffffffffffffffffffffffffffffffffff826139be565b613a0586836139be565b95508019841693508086168417925050509392505050565b6000819050919050565b6000613a42613a3d613a3884612f31565b613a1d565b612f31565b9050919050565b6000819050919050565b613a5c83613a27565b613a70613a6882613a49565b8484546139cb565b825550505050565b600090565b613a85613a78565b613a90818484613a53565b505050565b5b81811015613ab457613aa9600082613a7d565b600181019050613a96565b5050565b601f821115613af957613aca81613999565b613ad3846139ae565b81016020851015613ae2578190505b613af6613aee856139ae565b830182613a95565b50505b505050565b600082821c905092915050565b6000613b1c60001984600802613afe565b1980831691505092915050565b6000613b358383613b0b565b9150826002028217905092915050565b613b4e8261308c565b67ffffffffffffffff811115613b6757613b66612d5f565b5b613b718254613968565b613b7c828285613ab8565b600060209050601f831160018114613baf5760008415613b9d578287015190505b613ba78582613b29565b865550613c0f565b601f198416613bbd86613999565b60005b82811015613be557848901518255600182019150602085019450602081019050613bc0565b86831015613c025784890151613bfe601f891682613b0b565b8355505b6001600288020188555050505b505050505050565b7f4261746368207472616e73666572206e6f7420737570706f7274656400000000600082015250565b6000613c4d601c83613097565b9150613c5882613c17565b602082019050919050565b60006020820190508181036000830152613c7c81613c40565b9050919050565b6000604082019050613c986000830185612fa7565b613ca56020830184612fa7565b9392505050565b7f4e487b7100000000000000000000000000000000000000000000000000000000600052603260045260246000fd5b7f4261746368206275726e206e6f7420737570706f727465640000000000000000600082015250565b6000613d11601883613097565b9150613d1c82613cdb565b602082019050919050565b60006020820190508181036000830152613d4081613d04565b9050919050565b7f416c726561647920696e697469616c697a656400000000000000000000000000600082015250565b6000613d7d601383613097565b9150613d8882613d47565b602082019050919050565b60006020820190508181036000830152613dac81613d70565b9050919050565b6000819050919050565b600067ffffffffffffffff82169050919050565b6000613dec613de7613de284613db3565b613a1d565b613dbd565b9050919050565b613dfc81613dd1565b82525050565b6000602082019050613e176000830184613df3565b92915050565b7f4e487b7100000000000000000000000000000000000000000000000000000000600052601160045260246000fd5b6000613e5782612f31565b9150613e6283612f31565b9250828203905081811115613e7a57613e79613e1d565b5b92915050565b6000613e8b82612f31565b9150613e9683612f31565b9250828201905080821115613eae57613ead613e1d565b5b92915050565b600081905092915050565b6000613eca8261308c565b613ed48185613eb4565b9350613ee48185602086016130a8565b80840191505092915050565b6000613efc8284613ebf565b915081905092915050565b7f43616e206f6e6c79207472616e7366657220796f7572206f776e206163636f7560008201527f6e74000000000000000000000000000000000000000000000000000000000000602082015250565b6000613f63602283613097565b9150613f6e82613f07565b604082019050919050565b60006020820190508181036000830152613f9281613f56565b9050919050565b7f56616c75652063616e6e6f742065786365656420310000000000000000000000600082015250565b6000613fcf601583613097565b9150613fda82613f99565b602082019050919050565b60006020820190508181036000830152613ffe81613fc2565b9050919050565b7f43616e206f6e6c79206275726e20796f7572206f776e206163636f756e740000600082015250565b600061403b601e83613097565b915061404682614005565b602082019050919050565b6000602082019050818103600083015261406a8161402e565b9050919050565b61407a81612ef3565b82525050565b60006020820190506140956000830184614071565b92915050565b7f50726f66696c6520616c72656164792065786973747300000000000000000000600082015250565b60006140d1601683613097565b91506140dc8261409b565b602082019050919050565b60006020820190508181036000830152614100816140c4565b9050919050565b600060ff82169050919050565b600061411f82614107565b915061412a83614107565b9250828201905060ff81111561414357614142613e1d565b5b92915050565b7f536c756720616c72656164792074616b656e0000000000000000000000000000600082015250565b600061417f601283613097565b915061418a82614149565b602082019050919050565b600060208201905081810360008301526141ae81614172565b9050919050565b7f4e6f742070726f66696c65206f776e6572000000000000000000000000000000600082015250565b60006141eb601183613097565b91506141f6826141b5565b602082019050919050565b6000602082019050818103600083015261421a816141de565b9050919050565b7f4e6f74206f776e6572206f662070726f66696c65206964000000000000000000600082015250565b6000614257601783613097565b915061426282614221565b602082019050919050565b600060208201905081810360008301526142868161424a565b9050919050565b600081519050919050565b600082825260208201905092915050565b60006142b48261428d565b6142be8185614298565b93506142ce8185602086016130a8565b6142d781612d4e565b840191505092915050565b600060a0820190506142f76000830188614071565b6143046020830187614071565b6143116040830186612fa7565b61431e6060830185612fa7565b818103608083015261433081846142a9565b90509695505050505050565b60008151905061434b81612ffd565b92915050565b60006020828403121561436757614366612d3a565b5b60006143758482850161433c565b91505092915050565b600060a0820190506143936000830188614071565b6143a06020830187614071565b81810360408301526143b2818661362c565b905081810360608301526143c6818561362c565b905081810360808301526143da81846142a9565b90509695505050505050565b60006080820190506143fb6000830187614071565b6144086020830186612fa7565b6144156040830185612fa7565b6144226060830184612fa7565b95945050505050565b60006040820190508181036000830152614445818561362c565b90508181036020830152614459818461362c565b9050939250505056fe697066733a2f2f6261666b726569687736736e707135663371796e6f63696d343779757670717137786e6c61707466697376366d337a7379686b647669776f366e34a2646970667358221220a1c60824c52bb76229c0fa1203d4b4de6230e888f0165f1f5fc93cbf8d1652ec64736f6c634300081c0033",
  "linkReferences": {},
  "deployedLinkReferences": {}
}