{
  "_format": "hh-sol-artifact-1",
  "contractName": "LinkFar",
  "sourceName": "contracts/LinkFar.sol",
  "abi": [
    {
      "inputs": [],
      "stateMutability": "nonpayable",
      "type": "constructor"
    },
    {
      "inputs": [
        {
          "internalType": "address",
          "name": "sender",
          "type": "address"
        },
        {
          "internalType": "uint256",
          "name": "balance",
          "type": "uint256"
        },
        {
          "internalType": "uint256",
          "name": "needed",
          "type": "uint256"
        },
        {
          "internalType": "uint256",
          "name": "tokenId",
          "type": "uint256"
        }
      ],
      "name": "ERC1155InsufficientBalance",
      "type": "error"
    },
    {
      "inputs": [
        {
          "internalType": "address",
          "name": "approver",
          "type": "address"
        }
      ],
      "name": "ERC1155InvalidApprover",
      "type": "error"
    },
    {
      "inputs": [
        {
          "internalType": "uint256",
          "name": "idsLength",
          "type": "uint256"
        },
        {
          "internalType": "uint256",
          "name": "valuesLength",
          "type": "uint256"
        }
      ],
      "name": "ERC1155InvalidArrayLength",
      "type": "error"
    },
    {
      "inputs": [
        {
          "internalType": "address",
          "name": "operator",
          "type": "address"
        }
      ],
      "name": "ERC1155InvalidOperator",
      "type": "error"
    },
    {
      "inputs": [
        {
          "internalType": "address",
          "name": "receiver",
          "type": "address"
        }
      ],
      "name": "ERC1155InvalidReceiver",
      "type": "error"
    },
    {
      "inputs": [
        {
          "internalType": "address",
          "name": "sender",
          "type": "address"
        }
      ],
      "name": "ERC1155InvalidSender",
      "type": "error"
    },
    {
      "inputs": [
        {
          "internalType": "address",
          "name": "operator",
          "type": "address"
        },
        {
          "internalType": "address",
          "name": "owner",
          "type": "address"
        }
      ],
      "name": "ERC1155MissingApprovalForAll",
      "type": "error"
    },
    {
      "inputs": [],
      "name": "InvalidInitialization",
      "type": "error"
    },
    {
      "inputs": [],
      "name": "NotInitializing",
      "type": "error"
    },
    {
      "anonymous": false,
      "inputs": [
        {
          "indexed": true,
          "internalType": "address",
          "name": "account",
          "type": "address"
        },
        {
          "indexed": true,
          "internalType": "address",
          "name": "operator",
          "type": "address"
        },
        {
          "indexed": false,
          "internalType": "bool",
          "name": "approved",
          "type": "bool"
        }
      ],
      "name": "ApprovalForAll",
      "type": "event"
    },
    {
      "anonymous": false,
      "inputs": [
        {
          "indexed": false,
          "internalType": "uint64",
          "name": "version",
          "type": "uint64"
        }
      ],
      "name": "Initialized",
      "type": "event"
    },
    {
      "anonymous": false,
      "inputs": [
        {
          "indexed": true,
          "internalType": "uint256",
          "name": "id",
          "type": "uint256"
        },
        {
          "indexed": true,
          "internalType": "address",
          "name": "owner",
          "type": "address"
        }
      ],
      "name": "ProfileBurned",
      "type": "event"
    },
    {
      "anonymous": false,
      "inputs": [
        {
          "indexed": true,
          "internalType": "uint256",
          "name": "id",
          "type": "uint256"
        },
        {
          "indexed": true,
          "internalType": "address",
          "name": "owner",
          "type": "address"
        },
        {
          "indexed": false,
          "internalType": "string",
          "name": "uri",
          "type": "string"
        }
      ],
      "name": "ProfileChanged",
      "type": "event"
    },
    {
      "anonymous": false,
      "inputs": [
        {
          "indexed": true,
          "internalType": "uint256",
          "name": "id",
          "type": "uint256"
        },
        {
          "indexed": true,
          "internalType": "address",
          "name": "owner",
          "type": "address"
        },
        {
          "indexed": false,
          "internalType": "string",
          "name": "uri",
          "type": "string"
        }
      ],
      "name": "ProfileCreated",
      "type": "event"
    },
    {
      "anonymous": false,
      "inputs": [
        {
          "indexed": true,
          "internalType": "address",
          "name": "operator",
          "type": "address"
        },
        {
          "indexed": true,
          "internalType": "address",
          "name": "from",
          "type": "address"
        },
        {
          "indexed": true,
          "internalType": "address",
          "name": "to",
          "type": "address"
        },
        {
          "indexed": false,
          "internalType": "uint256[]",
          "name": "ids",
          "type": "uint256[]"
        },
        {
          "indexed": false,
          "internalType": "uint256[]",
          "name": "values",
          "type": "uint256[]"
        }
      ],
      "name": "TransferBatch",
      "type": "event"
    },
    {
      "anonymous": false,
      "inputs": [
        {
          "indexed": true,
          "internalType": "address",
          "name": "operator",
          "type": "address"
        },
        {
          "indexed": true,
          "internalType": "address",
          "name": "from",
          "type": "address"
        },
        {
          "indexed": true,
          "internalType": "address",
          "name": "to",
          "type": "address"
        },
        {
          "indexed": false,
          "internalType": "uint256",
          "name": "id",
          "type": "uint256"
        },
        {
          "indexed": false,
          "internalType": "uint256",
          "name": "value",
          "type": "uint256"
        }
      ],
      "name": "TransferSingle",
      "type": "event"
    },
    {
      "anonymous": false,
      "inputs": [
        {
          "indexed": false,
          "internalType": "string",
          "name": "value",
          "type": "string"
        },
        {
          "indexed": true,
          "internalType": "uint256",
          "name": "id",
          "type": "uint256"
        }
      ],
      "name": "URI",
      "type": "event"
    },
    {
      "inputs": [
        {
          "internalType": "address",
          "name": "account",
          "type": "address"
        },
        {
          "internalType": "uint256",
          "name": "id",
          "type": "uint256"
        }
      ],
      "name": "balanceOf",
      "outputs": [
        {
          "internalType": "uint256",
          "name": "",
          "type": "uint256"
        }
      ],
      "stateMutability": "view",
      "type": "function"
    },
    {
      "inputs": [
        {
          "internalType": "address[]",
          "name": "accounts",
          "type": "address[]"
        },
        {
          "internalType": "uint256[]",
          "name": "ids",
          "type": "uint256[]"
        }
      ],
      "name": "balanceOfBatch",
      "outputs": [
        {
          "internalType": "uint256[]",
          "name": "",
          "type": "uint256[]"
        }
      ],
      "stateMutability": "view",
      "type": "function"
    },
    {
      "inputs": [
        {
          "internalType": "address",
          "name": "account",
          "type": "address"
        },
        {
          "internalType": "uint256",
          "name": "id",
          "type": "uint256"
        },
        {
          "internalType": "uint256",
          "name": "value",
          "type": "uint256"
        }
      ],
      "name": "burn",
      "outputs": [],
      "stateMutability": "nonpayable",
      "type": "function"
    },
    {
      "inputs": [
        {
          "internalType": "address",
          "name": "",
          "type": "address"
        },
        {
          "internalType": "uint256[]",
          "name": "",
          "type": "uint256[]"
        },
        {
          "internalType": "uint256[]",
          "name": "",
          "type": "uint256[]"
        }
      ],
      "name": "burnBatch",
      "outputs": [],
      "stateMutability": "pure",
      "type": "function"
    },
    {
      "inputs": [
        {
          "internalType": "address",
          "name": "_user",
          "type": "address"
        }
      ],
      "name": "getIdByAddress",
      "outputs": [
        {
          "internalType": "uint256",
          "name": "",
          "type": "uint256"
        }
      ],
      "stateMutability": "view",
      "type": "function"
    },
    {
      "inputs": [
        {
          "internalType": "address",
          "name": "_user",
          "type": "address"
        }
      ],
      "name": "getProfile",
      "outputs": [
        {
          "components": [
            {
              "internalType": "address",
              "name": "owner",
              "type": "address"
            },
            {
              "internalType": "string",
              "name": "uri",
              "type": "string"
            },
            {
              "internalType": "string",
              "name": "slug",
              "type": "string"
            }
          ],
          "internalType": "struct Profile",
          "name": "",
          "type": "tuple"
        }
      ],
      "stateMutability": "view",
      "type": "function"
    },
    {
      "inputs": [
        {
          "internalType": "string",
          "name": "_slug",
          "type": "string"
        }
      ],
      "name": "getProfileBySlug",
      "outputs": [
        {
          "components": [
            {
              "internalType": "address",
              "name": "owner",
              "type": "address"
            },
            {
              "internalType": "string",
              "name": "uri",
              "type": "string"
            },
            {
              "internalType": "string",
              "name": "slug",
              "type": "string"
            }
          ],
          "internalType": "struct Profile",
          "name": "",
          "type": "tuple"
        }
      ],
      "stateMutability": "view",
      "type": "function"
    },
    {
      "inputs": [],
      "name": "getVersion",
      "outputs": [
        {
          "internalType": "string",
          "name": "",
          "type": "string"
        }
      ],
      "stateMutability": "pure",
      "type": "function"
    },
    {
      "inputs": [],
      "name": "initialize",
      "outputs": [],
      "stateMutability": "nonpayable",
      "type": "function"
    },
    {
      "inputs": [
        {
          "internalType": "address",
          "name": "account",
          "type": "address"
        },
        {
          "internalType": "address",
          "name": "operator",
          "type": "address"
        }
      ],
      "name": "isApprovedForAll",
      "outputs": [
        {
          "internalType": "bool",
          "name": "",
          "type": "bool"
        }
      ],
      "stateMutability": "view",
      "type": "function"
    },
    {
      "inputs": [
        {
          "internalType": "string",
          "name": "_uri",
          "type": "string"
        }
      ],
      "name": "mint",
      "outputs": [
        {
          "internalType": "uint256",
          "name": "",
          "type": "uint256"
        }
      ],
      "stateMutability": "nonpayable",
      "type": "function"
    },
    {
      "inputs": [
        {
          "internalType": "address",
          "name": "",
          "type": "address"
        },
        {
          "internalType": "address",
          "name": "",
          "type": "address"
        },
        {
          "internalType": "uint256[]",
          "name": "",
          "type": "uint256[]"
        },
        {
          "internalType": "uint256[]",
          "name": "",
          "type": "uint256[]"
        },
        {
          "internalType": "bytes",
          "name": "",
          "type": "bytes"
        }
      ],
      "name": "safeBatchTransferFrom",
      "outputs": [],
      "stateMutability": "pure",
      "type": "function"
    },
    {
      "inputs": [
        {
          "internalType": "address",
          "name": "from",
          "type": "address"
        },
        {
          "internalType": "address",
          "name": "to",
          "type": "address"
        },
        {
          "internalType": "uint256",
          "name": "id",
          "type": "uint256"
        },
        {
          "internalType": "uint256",
          "name": "value",
          "type": "uint256"
        },
        {
          "internalType": "bytes",
          "name": "",
          "type": "bytes"
        }
      ],
      "name": "safeTransferFrom",
      "outputs": [],
      "stateMutability": "nonpayable",
      "type": "function"
    },
    {
      "inputs": [
        {
          "internalType": "address",
          "name": "operator",
          "type": "address"
        },
        {
          "internalType": "bool",
          "name": "approved",
          "type": "bool"
        }
      ],
      "name": "setApprovalForAll",
      "outputs": [],
      "stateMutability": "nonpayable",
      "type": "function"
    },
    {
      "inputs": [
        {
          "internalType": "string",
          "name": "_slug",
          "type": "string"
        }
      ],
      "name": "setSlug",
      "outputs": [],
      "stateMutability": "nonpayable",
      "type": "function"
    },
    {
      "inputs": [
        {
          "internalType": "bytes4",
          "name": "interfaceId",
          "type": "bytes4"
        }
      ],
      "name": "supportsInterface",
      "outputs": [
        {
          "internalType": "bool",
          "name": "",
          "type": "bool"
        }
      ],
      "stateMutability": "view",
      "type": "function"
    },
    {
      "inputs": [],
      "name": "totalMinted",
      "outputs": [
        {
          "internalType": "uint256",
          "name": "",
          "type": "uint256"
        }
      ],
      "stateMutability": "view",
      "type": "function"
    },
    {
      "inputs": [],
      "name": "totalSupply",
      "outputs": [
        {
          "internalType": "uint256",
          "name": "",
          "type": "uint256"
        }
      ],
      "stateMutability": "view",
      "type": "function"
    },
    {
      "inputs": [
        {
          "internalType": "string",
          "name": "_uri",
          "type": "string"
        }
      ],
      "name": "updateProfile",
      "outputs": [],
      "stateMutability": "nonpayable",
      "type": "function"
    },
    {
      "inputs": [
        {
          "internalType": "uint256",
          "name": "tokenId",
          "type": "uint256"
        }
      ],
      "name": "uri",
      "outputs": [
        {
          "internalType": "string",
          "name": "",
          "type": "string"
        }
      ],
      "stateMutability": "view",
      "type": "function"
    }
  ],
  "bytecode": "0x608060405234801561001057600080fd5b5061001f61002460201b60201c565b61018e565b600061003461012860201b60201c565b90508060000160089054906101000a900460ff161561007f576040517ff92ee8a900000000000000000000000000000000000000000000000000000000815260040160405180910390fd5b67ffffffffffffffff80168160000160009054906101000a900467ffffffffffffffff1667ffffffffffffffff16146101255767ffffffffffffffff8160000160006101000a81548167ffffffffffffffff021916908367ffffffffffffffff1602179055507fc7f505b2f371ae2175ee4913f4499e1f2633a7b5936321eed1cdaeb6115181d267ffffffffffffffff60405161011c9190610173565b60405180910390a15b50565b60007ff0c57e16840df040f15088dc2f81fe391c3923bec73e23a9662efc9c229c6a00905090565b600067ffffffffffffffff82169050919050565b61016d81610150565b82525050565b60006020820190506101886000830184610164565b92915050565b6142b58061019d6000396000f3fe608060405234801561001057600080fd5b506004361061012a5760003560e01c80638129fc1c116100ad578063de91375d11610071578063de91375d14610353578063dff3b4971461036f578063e985e9c51461039f578063f242432a146103cf578063f5298aca146103eb5761012a565b80638129fc1c146102af578063a22cb465146102b9578063a2309ff8146102d5578063d85d3d27146102f3578063db0297d9146103235761012a565b80630f53a470116100f45780630f53a470146101f957806318160ddd146102295780632eb2c2d6146102475780634e1273f4146102635780636b20c454146102935761012a565b80629299e31461012f578062fdd58e1461014b57806301ffc9a71461017b5780630d8e6e2c146101ab5780630e89341c146101c9575b600080fd5b61014960048036038101906101449190612ca7565b610407565b005b61016560048036038101906101609190612d84565b610544565b6040516101729190612dd3565b60405180910390f35b61019560048036038101906101909190612e46565b6105ad565b6040516101a29190612e8e565b60405180910390f35b6101b361068f565b6040516101c09190612f28565b60405180910390f35b6101e360048036038101906101de9190612f4a565b6106cc565b6040516101f09190612f28565b60405180910390f35b610213600480360381019061020e9190612f77565b610774565b6040516102209190613054565b60405180910390f35b610231610960565b60405161023e9190612dd3565b60405180910390f35b610261600480360381019061025c91906131df565b61096a565b005b61027d60048036038101906102789190613371565b6109a5565b60405161028a91906134a7565b60405180910390f35b6102ad60048036038101906102a891906134c9565b610aae565b005b6102b7610ae9565b005b6102d360048036038101906102ce9190613580565b610ce2565b005b6102dd610cf8565b6040516102ea9190612dd3565b60405180910390f35b61030d60048036038101906103089190612ca7565b610d0e565b60405161031a9190612dd3565b60405180910390f35b61033d60048036038101906103389190612ca7565b610ed7565b60405161034a9190613054565b60405180910390f35b61036d60048036038101906103689190612ca7565b611112565b005b61038960048036038101906103849190612f77565b61129a565b6040516103969190612dd3565b60405180910390f35b6103b960048036038101906103b491906135c0565b6112e3565b6040516103c69190612e8e565b60405180910390f35b6103e960048036038101906103e49190613600565b611385565b005b61040560048036038101906104009190613697565b611585565b005b6000600360003373ffffffffffffffffffffffffffffffffffffffff1673ffffffffffffffffffffffffffffffffffffffff1681526020019081526020016000205403610489576040517f08c379a000000000000000000000000000000000000000000000000000000000815260040161048090613736565b60405180910390fd5b6000600360003373ffffffffffffffffffffffffffffffffffffffff1673ffffffffffffffffffffffffffffffffffffffff168152602001908152602001600020549050816002600083815260200190815260200160002060010190816104f09190613962565b503373ffffffffffffffffffffffffffffffffffffffff16817fe11c3ae58a036068fd0179bf17d3fdf99972e1c38ac40c6e8d9d30e5aa30b7b3846040516105389190612f28565b60405180910390a35050565b60008061054f61191e565b905080600001600084815260200190815260200160002060008573ffffffffffffffffffffffffffffffffffffffff1673ffffffffffffffffffffffffffffffffffffffff1681526020019081526020016000205491505092915050565b60007fd9b67a26000000000000000000000000000000000000000000000000000000007bffffffffffffffffffffffffffffffffffffffffffffffffffffffff1916827bffffffffffffffffffffffffffffffffffffffffffffffffffffffff1916148061067857507f0e89341c000000000000000000000000000000000000000000000000000000007bffffffffffffffffffffffffffffffffffffffffffffffffffffffff1916827bffffffffffffffffffffffffffffffffffffffffffffffffffffffff1916145b80610688575061068782611946565b5b9050919050565b60606040518060400160405280600581526020017f302e302e31000000000000000000000000000000000000000000000000000000815250905090565b60606002600083815260200190815260200160002060010180546106ef90613785565b80601f016020809104026020016040519081016040528092919081815260200182805461071b90613785565b80156107685780601f1061073d57610100808354040283529160200191610768565b820191906000526020600020905b81548152906001019060200180831161074b57829003601f168201915b50505050509050919050565b61077c612ab9565b6000600360008473ffffffffffffffffffffffffffffffffffffffff1673ffffffffffffffffffffffffffffffffffffffff168152602001908152602001600020549050600260008281526020019081526020016000206040518060600160405290816000820160009054906101000a900473ffffffffffffffffffffffffffffffffffffffff1673ffffffffffffffffffffffffffffffffffffffff1673ffffffffffffffffffffffffffffffffffffffff16815260200160018201805461084490613785565b80601f016020809104026020016040519081016040528092919081815260200182805461087090613785565b80156108bd5780601f10610892576101008083540402835291602001916108bd565b820191906000526020600020905b8154815290600101906020018083116108a057829003601f168201915b505050505081526020016002820180546108d690613785565b80601f016020809104026020016040519081016040528092919081815260200182805461090290613785565b801561094f5780601f106109245761010080835404028352916020019161094f565b820191906000526020600020905b81548152906001019060200180831161093257829003601f168201915b505050505081525050915050919050565b6000600154905090565b6040517f08c379a000000000000000000000000000000000000000000000000000000000815260040161099c90613a80565b60405180910390fd5b606081518351146109f157815183516040517f5b0599910000000000000000000000000000000000000000000000000000000081526004016109e8929190613aa0565b60405180910390fd5b6000835167ffffffffffffffff811115610a0e57610a0d612b7c565b5b604051908082528060200260200182016040528015610a3c5781602001602082028036833780820191505090505b50905060005b8451811015610aa357610a79610a6182876119b090919063ffffffff16565b610a7483876119c490919063ffffffff16565b610544565b828281518110610a8c57610a8b613ac9565b5b602002602001018181525050806001019050610a42565b508091505092915050565b6040517f08c379a0000000000000000000000000000000000000000000000000000000008152600401610ae090613b44565b60405180910390fd5b6000610af36119d8565b905060008160000160089054906101000a900460ff1615905060008260000160009054906101000a900467ffffffffffffffff1690506000808267ffffffffffffffff16148015610b415750825b9050600060018367ffffffffffffffff16148015610b76575060003073ffffffffffffffffffffffffffffffffffffffff163b145b905081158015610b84575080155b15610bbb576040517ff92ee8a900000000000000000000000000000000000000000000000000000000815260040160405180910390fd5b60018560000160006101000a81548167ffffffffffffffff021916908367ffffffffffffffff1602179055508315610c0b5760018560000160086101000a81548160ff0219169083151502179055505b6000805414610c4f576040517f08c379a0000000000000000000000000000000000000000000000000000000008152600401610c4690613bb0565b60405180910390fd5b610c6760405180602001604052806000815250611a00565b610c6f611a14565b600160008190555060006001819055508315610cdb5760008560000160086101000a81548160ff0219169083151502179055507fc7f505b2f371ae2175ee4913f4499e1f2633a7b5936321eed1cdaeb6115181d26001604051610cd29190613c1f565b60405180910390a15b5050505050565b610cf4610ced611a1e565b8383611a26565b5050565b60006001600054610d099190613c69565b905090565b6000610d18611ba5565b6000805490506001600080828254610d309190613c9d565b925050819055506001806000828254610d499190613c9d565b92505081905550600060405180606001604052803373ffffffffffffffffffffffffffffffffffffffff168152602001858152602001604051806020016040528060008152508152509050806002600084815260200190815260200160002060008201518160000160006101000a81548173ffffffffffffffffffffffffffffffffffffffff021916908373ffffffffffffffffffffffffffffffffffffffff1602179055506020820151816001019081610e049190613962565b506040820151816002019081610e1a9190613962565b5090505081600360003373ffffffffffffffffffffffffffffffffffffffff1673ffffffffffffffffffffffffffffffffffffffff16815260200190815260200160002081905550610e7e3383600160405180602001604052806000815250611c29565b3373ffffffffffffffffffffffffffffffffffffffff16827f64849d9017ccd37161417597e9733299a671f98dcb0907422672a2e159eb121786604051610ec59190612f28565b60405180910390a38192505050919050565b610edf612ab9565b6000610eea83611cc2565b90506000600482604051610efe9190613d0d565b908152602001604051809103902054905060008103610f70576040518060600160405280600073ffffffffffffffffffffffffffffffffffffffff168152602001604051806020016040528060008152508152602001604051806020016040528060008152508152509250505061110d565b600260008281526020019081526020016000206040518060600160405290816000820160009054906101000a900473ffffffffffffffffffffffffffffffffffffffff1673ffffffffffffffffffffffffffffffffffffffff1673ffffffffffffffffffffffffffffffffffffffff168152602001600182018054610ff490613785565b80601f016020809104026020016040519081016040528092919081815260200182805461102090613785565b801561106d5780601f106110425761010080835404028352916020019161106d565b820191906000526020600020905b81548152906001019060200180831161105057829003601f168201915b5050505050815260200160028201805461108690613785565b80601f01602080910402602001604051908101604052809291908181526020018280546110b290613785565b80156110ff5780601f106110d4576101008083540402835291602001916110ff565b820191906000526020600020905b8154815290600101906020018083116110e257829003601f168201915b505050505081525050925050505b919050565b61111a611dfa565b600061112582611cc2565b905061113081611e7e565b6000600360003373ffffffffffffffffffffffffffffffffffffffff1673ffffffffffffffffffffffffffffffffffffffff16815260200190815260200160002054905061117d81611f2f565b60006002600083815260200190815260200160002060020180546111a090613785565b80601f01602080910402602001604051908101604052809291908181526020018280546111cc90613785565b80156112195780601f106111ee57610100808354040283529160200191611219565b820191906000526020600020905b8154815290600101906020018083116111fc57829003601f168201915b5050505050905060008151111561124d5760048160405161123a9190613d0d565b9081526020016040518091039020600090555b8160048460405161125e9190613d0d565b908152602001604051809103902081905550826002600084815260200190815260200160002060020190816112939190613962565b5050505050565b6000600360008373ffffffffffffffffffffffffffffffffffffffff1673ffffffffffffffffffffffffffffffffffffffff168152602001908152602001600020549050919050565b6000806112ee61191e565b90508060010160008573ffffffffffffffffffffffffffffffffffffffff1673ffffffffffffffffffffffffffffffffffffffff16815260200190815260200160002060008473ffffffffffffffffffffffffffffffffffffffff1673ffffffffffffffffffffffffffffffffffffffff16815260200190815260200160002060009054906101000a900460ff1691505092915050565b61138e83611f2f565b3373ffffffffffffffffffffffffffffffffffffffff168573ffffffffffffffffffffffffffffffffffffffff16146113fc576040517f08c379a00000000000000000000000000000000000000000000000000000000081526004016113f390613d96565b60405180910390fd5b6001821461143f576040517f08c379a000000000000000000000000000000000000000000000000000000000815260040161143690613e02565b60405180910390fd5b600073ffffffffffffffffffffffffffffffffffffffff168473ffffffffffffffffffffffffffffffffffffffff16036114835761147e858484611585565b61157e565b6000600360008773ffffffffffffffffffffffffffffffffffffffff1673ffffffffffffffffffffffffffffffffffffffff1681526020019081526020016000208190555082600360008673ffffffffffffffffffffffffffffffffffffffff1673ffffffffffffffffffffffffffffffffffffffff16815260200190815260200160002081905550836002600085815260200190815260200160002060000160006101000a81548173ffffffffffffffffffffffffffffffffffffffff021916908373ffffffffffffffffffffffffffffffffffffffff16021790555061157d8585858560405180602001604052806000815250612057565b5b5050505050565b61158e82611f2f565b3373ffffffffffffffffffffffffffffffffffffffff168373ffffffffffffffffffffffffffffffffffffffff16146115fc576040517f08c379a00000000000000000000000000000000000000000000000000000000081526004016115f390613e6e565b60405180910390fd5b6001811461163f576040517f08c379a000000000000000000000000000000000000000000000000000000000815260040161163690613e02565b60405180910390fd5b6000600260008481526020019081526020016000206040518060600160405290816000820160009054906101000a900473ffffffffffffffffffffffffffffffffffffffff1673ffffffffffffffffffffffffffffffffffffffff1673ffffffffffffffffffffffffffffffffffffffff1681526020016001820180546116c590613785565b80601f01602080910402602001604051908101604052809291908181526020018280546116f190613785565b801561173e5780601f106117135761010080835404028352916020019161173e565b820191906000526020600020905b81548152906001019060200180831161172157829003601f168201915b5050505050815260200160028201805461175790613785565b80601f016020809104026020016040519081016040528092919081815260200182805461178390613785565b80156117d05780601f106117a5576101008083540402835291602001916117d0565b820191906000526020600020905b8154815290600101906020018083116117b357829003601f168201915b505050505081525050905060026000848152602001908152602001600020600080820160006101000a81549073ffffffffffffffffffffffffffffffffffffffff02191690556001820160006118269190612af0565b6002820160006118369190612af0565b5050600360003373ffffffffffffffffffffffffffffffffffffffff1673ffffffffffffffffffffffffffffffffffffffff16815260200190815260200160002060009055600081604001515111156118b0576004816040015160405161189d9190613d0d565b9081526020016040518091039020600090555b60018060008282546118c29190613c69565b925050819055506118d4848484612162565b3373ffffffffffffffffffffffffffffffffffffffff16837fa7659c32a43f2ffbf06162724a8547dd209ed0a720f0e6db14c2473e76da2eb960405160405180910390a350505050565b60007f88be536d5240c274a3b1d3a1be54482fd9caa294f08c62a7cde569f49a3c4500905090565b60007f01ffc9a7000000000000000000000000000000000000000000000000000000007bffffffffffffffffffffffffffffffffffffffffffffffffffffffff1916827bffffffffffffffffffffffffffffffffffffffffffffffffffffffff1916149050919050565b600060208202602084010151905092915050565b600060208202602084010151905092915050565b60007ff0c57e16840df040f15088dc2f81fe391c3923bec73e23a9662efc9c229c6a00905090565b611a08612209565b611a1181612249565b50565b611a1c612209565b565b600033905090565b6000611a3061191e565b9050600073ffffffffffffffffffffffffffffffffffffffff168373ffffffffffffffffffffffffffffffffffffffff1603611aa45760006040517fced3e100000000000000000000000000000000000000000000000000000000008152600401611a9b9190613e9d565b60405180910390fd5b818160010160008673ffffffffffffffffffffffffffffffffffffffff1673ffffffffffffffffffffffffffffffffffffffff16815260200190815260200160002060008573ffffffffffffffffffffffffffffffffffffffff1673ffffffffffffffffffffffffffffffffffffffff16815260200190815260200160002060006101000a81548160ff0219169083151502179055508273ffffffffffffffffffffffffffffffffffffffff168473ffffffffffffffffffffffffffffffffffffffff167f17307eab39ab6107e8899845ad3d59bd9653f200f220920489ca2b5937696c3184604051611b979190612e8e565b60405180910390a350505050565b6000600360003373ffffffffffffffffffffffffffffffffffffffff1673ffffffffffffffffffffffffffffffffffffffff1681526020019081526020016000205414611c27576040517f08c379a0000000000000000000000000000000000000000000000000000000008152600401611c1e90613f04565b60405180910390fd5b565b600073ffffffffffffffffffffffffffffffffffffffff168473ffffffffffffffffffffffffffffffffffffffff1603611c9b5760006040517f57f447ce000000000000000000000000000000000000000000000000000000008152600401611c929190613e9d565b60405180910390fd5b600080611ca8858561225d565b91509150611cba60008784848761228d565b505050505050565b6060600082905060005b8151811015611df057604160f81b828281518110611ced57611cec613ac9565b5b602001015160f81c60f81b7effffffffffffffffffffffffffffffffffffffffffffffffffffffffffffff191610158015611d6b5750605a60f81b828281518110611d3b57611d3a613ac9565b5b602001015160f81c60f81b7effffffffffffffffffffffffffffffffffffffffffffffffffffffffffffff191611155b15611de3576020828281518110611d8557611d84613ac9565b5b602001015160f81c60f81b60f81c611d9d9190613f31565b60f81b828281518110611db357611db2613ac9565b5b60200101907effffffffffffffffffffffffffffffffffffffffffffffffffffffffffffff1916908160001a9053505b8080600101915050611ccc565b5080915050919050565b6000600360003373ffffffffffffffffffffffffffffffffffffffff1673ffffffffffffffffffffffffffffffffffffffff1681526020019081526020016000205403611e7c576040517f08c379a0000000000000000000000000000000000000000000000000000000008152600401611e7390613736565b60405180910390fd5b565b6000600482604051611e909190613d0d565b908152602001604051809103902054905060008114611f2b57600360003373ffffffffffffffffffffffffffffffffffffffff1673ffffffffffffffffffffffffffffffffffffffff168152602001908152602001600020548114611f2a576040517f08c379a0000000000000000000000000000000000000000000000000000000008152600401611f2190613fb2565b60405180910390fd5b5b5050565b3373ffffffffffffffffffffffffffffffffffffffff166002600083815260200190815260200160002060000160009054906101000a900473ffffffffffffffffffffffffffffffffffffffff1673ffffffffffffffffffffffffffffffffffffffff1614611fd3576040517f08c379a0000000000000000000000000000000000000000000000000000000008152600401611fca9061401e565b60405180910390fd5b80600360003373ffffffffffffffffffffffffffffffffffffffff1673ffffffffffffffffffffffffffffffffffffffff1681526020019081526020016000205414612054576040517f08c379a000000000000000000000000000000000000000000000000000000000815260040161204b9061408a565b60405180910390fd5b50565b600073ffffffffffffffffffffffffffffffffffffffff168473ffffffffffffffffffffffffffffffffffffffff16036120c95760006040517f57f447ce0000000000000000000000000000000000000000000000000000000081526004016120c09190613e9d565b60405180910390fd5b600073ffffffffffffffffffffffffffffffffffffffff168573ffffffffffffffffffffffffffffffffffffffff160361213b5760006040517f01a835140000000000000000000000000000000000000000000000000000000081526004016121329190613e9d565b60405180910390fd5b600080612148858561225d565b91509150612159878784848761228d565b50505050505050565b600073ffffffffffffffffffffffffffffffffffffffff168373ffffffffffffffffffffffffffffffffffffffff16036121d45760006040517f01a835140000000000000000000000000000000000000000000000000000000081526004016121cb9190613e9d565b60405180910390fd5b6000806121e1848461225d565b9150915061220285600084846040518060200160405280600081525061228d565b5050505050565b61221161233f565b612247576040517fd7e6bcf800000000000000000000000000000000000000000000000000000000815260040160405180910390fd5b565b612251612209565b61225a8161235f565b50565b60608060405191506001825283602083015260408201905060018152826020820152604081016040529250929050565b61229985858585612381565b600073ffffffffffffffffffffffffffffffffffffffff168473ffffffffffffffffffffffffffffffffffffffff16146123385760006122d7611a1e565b905060018451036123275760006122f86000866119c490919063ffffffff16565b905060006123106000866119c490919063ffffffff16565b9050612320838989858589612393565b5050612336565b612335818787878787612547565b5b505b5050505050565b60006123496119d8565b60000160089054906101000a900460ff16905090565b600061236961191e565b90508181600201908161237c9190613962565b505050565b61238d848484846126fb565b50505050565b60008473ffffffffffffffffffffffffffffffffffffffff163b111561253f578373ffffffffffffffffffffffffffffffffffffffff1663f23a6e6187878686866040518663ffffffff1660e01b81526004016123f49594939291906140ff565b6020604051808303816000875af192505050801561243057506040513d601f19601f8201168201806040525081019061242d919061416e565b60015b6124b4573d8060008114612460576040519150601f19603f3d011682016040523d82523d6000602084013e612465565b606091505b5060008151036124ac57846040517f57f447ce0000000000000000000000000000000000000000000000000000000081526004016124a39190613e9d565b60405180910390fd5b805181602001fd5b63f23a6e6160e01b7bffffffffffffffffffffffffffffffffffffffffffffffffffffffff1916817bffffffffffffffffffffffffffffffffffffffffffffffffffffffff19161461253d57846040517f57f447ce0000000000000000000000000000000000000000000000000000000081526004016125349190613e9d565b60405180910390fd5b505b505050505050565b60008473ffffffffffffffffffffffffffffffffffffffff163b11156126f3578373ffffffffffffffffffffffffffffffffffffffff1663bc197c8187878686866040518663ffffffff1660e01b81526004016125a895949392919061419b565b6020604051808303816000875af19250505080156125e457506040513d601f19601f820116820180604052508101906125e1919061416e565b60015b612668573d8060008114612614576040519150601f19603f3d011682016040523d82523d6000602084013e612619565b606091505b50600081510361266057846040517f57f447ce0000000000000000000000000000000000000000000000000000000081526004016126579190613e9d565b60405180910390fd5b805181602001fd5b63bc197c8160e01b7bffffffffffffffffffffffffffffffffffffffffffffffffffffffff1916817bffffffffffffffffffffffffffffffffffffffffffffffffffffffff1916146126f157846040517f57f447ce0000000000000000000000000000000000000000000000000000000081526004016126e89190613e9d565b60405180910390fd5b505b505050505050565b600061270561191e565b9050815183511461275157825182516040517f5b059991000000000000000000000000000000000000000000000000000000008152600401612748929190613aa0565b60405180910390fd5b600061275b611a1e565b905060005b845181101561297357600061277e82876119c490919063ffffffff16565b9050600061279583876119c490919063ffffffff16565b9050600073ffffffffffffffffffffffffffffffffffffffff168973ffffffffffffffffffffffffffffffffffffffff16146128c857600085600001600084815260200190815260200160002060008b73ffffffffffffffffffffffffffffffffffffffff1673ffffffffffffffffffffffffffffffffffffffff1681526020019081526020016000205490508181101561286d57898183856040517f03dee4c50000000000000000000000000000000000000000000000000000000081526004016128649493929190614203565b60405180910390fd5b81810386600001600085815260200190815260200160002060008c73ffffffffffffffffffffffffffffffffffffffff1673ffffffffffffffffffffffffffffffffffffffff16815260200190815260200160002081905550505b600073ffffffffffffffffffffffffffffffffffffffff168873ffffffffffffffffffffffffffffffffffffffff1614612966578085600001600084815260200190815260200160002060008a73ffffffffffffffffffffffffffffffffffffffff1673ffffffffffffffffffffffffffffffffffffffff168152602001908152602001600020600082825461295e9190613c9d565b925050819055505b5050806001019050612760565b506001845103612a325760006129936000866119c490919063ffffffff16565b905060006129ab6000866119c490919063ffffffff16565b90508673ffffffffffffffffffffffffffffffffffffffff168873ffffffffffffffffffffffffffffffffffffffff168473ffffffffffffffffffffffffffffffffffffffff167fc3d58168c5ae7397731d063d5bbf3d657854427343f4c083240f7aacaa2d0f628585604051612a23929190613aa0565b60405180910390a45050612ab1565b8473ffffffffffffffffffffffffffffffffffffffff168673ffffffffffffffffffffffffffffffffffffffff168273ffffffffffffffffffffffffffffffffffffffff167f4a39dc06d4c0dbc64b70af90fd698a233a518aa5d07e595d983b8c0526c8f7fb8787604051612aa8929190614248565b60405180910390a45b505050505050565b6040518060600160405280600073ffffffffffffffffffffffffffffffffffffffff16815260200160608152602001606081525090565b508054612afc90613785565b6000825580601f10612b0e5750612b2d565b601f016020900490600052602060002090810190612b2c9190612b30565b5b50565b5b80821115612b49576000816000905550600101612b31565b5090565b6000604051905090565b600080fd5b600080fd5b600080fd5b600080fd5b6000601f19601f8301169050919050565b7f4e487b7100000000000000000000000000000000000000000000000000000000600052604160045260246000fd5b612bb482612b6b565b810181811067ffffffffffffffff82111715612bd357612bd2612b7c565b5b80604052505050565b6000612be6612b4d565b9050612bf28282612bab565b919050565b600067ffffffffffffffff821115612c1257612c11612b7c565b5b612c1b82612b6b565b9050602081019050919050565b82818337600083830152505050565b6000612c4a612c4584612bf7565b612bdc565b905082815260208101848484011115612c6657612c65612b66565b5b612c71848285612c28565b509392505050565b600082601f830112612c8e57612c8d612b61565b5b8135612c9e848260208601612c37565b91505092915050565b600060208284031215612cbd57612cbc612b57565b5b600082013567ffffffffffffffff811115612cdb57612cda612b5c565b5b612ce784828501612c79565b91505092915050565b600073ffffffffffffffffffffffffffffffffffffffff82169050919050565b6000612d1b82612cf0565b9050919050565b612d2b81612d10565b8114612d3657600080fd5b50565b600081359050612d4881612d22565b92915050565b6000819050919050565b612d6181612d4e565b8114612d6c57600080fd5b50565b600081359050612d7e81612d58565b92915050565b60008060408385031215612d9b57612d9a612b57565b5b6000612da985828601612d39565b9250506020612dba85828601612d6f565b9150509250929050565b612dcd81612d4e565b82525050565b6000602082019050612de86000830184612dc4565b92915050565b60007fffffffff0000000000000000000000000000000000000000000000000000000082169050919050565b612e2381612dee565b8114612e2e57600080fd5b50565b600081359050612e4081612e1a565b92915050565b600060208284031215612e5c57612e5b612b57565b5b6000612e6a84828501612e31565b91505092915050565b60008115159050919050565b612e8881612e73565b82525050565b6000602082019050612ea36000830184612e7f565b92915050565b600081519050919050565b600082825260208201905092915050565b60005b83811015612ee3578082015181840152602081019050612ec8565b60008484015250505050565b6000612efa82612ea9565b612f048185612eb4565b9350612f14818560208601612ec5565b612f1d81612b6b565b840191505092915050565b60006020820190508181036000830152612f428184612eef565b905092915050565b600060208284031215612f6057612f5f612b57565b5b6000612f6e84828501612d6f565b91505092915050565b600060208284031215612f8d57612f8c612b57565b5b6000612f9b84828501612d39565b91505092915050565b612fad81612d10565b82525050565b600082825260208201905092915050565b6000612fcf82612ea9565b612fd98185612fb3565b9350612fe9818560208601612ec5565b612ff281612b6b565b840191505092915050565b60006060830160008301516130156000860182612fa4565b506020830151848203602086015261302d8282612fc4565b915050604083015184820360408601526130478282612fc4565b9150508091505092915050565b6000602082019050818103600083015261306e8184612ffd565b905092915050565b600067ffffffffffffffff82111561309157613090612b7c565b5b602082029050602081019050919050565b600080fd5b60006130ba6130b584613076565b612bdc565b905080838252602082019050602084028301858111156130dd576130dc6130a2565b5b835b8181101561310657806130f28882612d6f565b8452602084019350506020810190506130df565b5050509392505050565b600082601f83011261312557613124612b61565b5b81356131358482602086016130a7565b91505092915050565b600067ffffffffffffffff82111561315957613158612b7c565b5b61316282612b6b565b9050602081019050919050565b600061318261317d8461313e565b612bdc565b90508281526020810184848401111561319e5761319d612b66565b5b6131a9848285612c28565b509392505050565b600082601f8301126131c6576131c5612b61565b5b81356131d684826020860161316f565b91505092915050565b600080600080600060a086880312156131fb576131fa612b57565b5b600061320988828901612d39565b955050602061321a88828901612d39565b945050604086013567ffffffffffffffff81111561323b5761323a612b5c565b5b61324788828901613110565b935050606086013567ffffffffffffffff81111561326857613267612b5c565b5b61327488828901613110565b925050608086013567ffffffffffffffff81111561329557613294612b5c565b5b6132a1888289016131b1565b9150509295509295909350565b600067ffffffffffffffff8211156132c9576132c8612b7c565b5b602082029050602081019050919050565b60006132ed6132e8846132ae565b612bdc565b905080838252602082019050602084028301858111156133105761330f6130a2565b5b835b8181101561333957806133258882612d39565b845260208401935050602081019050613312565b5050509392505050565b600082601f83011261335857613357612b61565b5b81356133688482602086016132da565b91505092915050565b6000806040838503121561338857613387612b57565b5b600083013567ffffffffffffffff8111156133a6576133a5612b5c565b5b6133b285828601613343565b925050602083013567ffffffffffffffff8111156133d3576133d2612b5c565b5b6133df85828601613110565b9150509250929050565b600081519050919050565b600082825260208201905092915050565b6000819050602082019050919050565b61341e81612d4e565b82525050565b60006134308383613415565b60208301905092915050565b6000602082019050919050565b6000613454826133e9565b61345e81856133f4565b935061346983613405565b8060005b8381101561349a5781516134818882613424565b975061348c8361343c565b92505060018101905061346d565b5085935050505092915050565b600060208201905081810360008301526134c18184613449565b905092915050565b6000806000606084860312156134e2576134e1612b57565b5b60006134f086828701612d39565b935050602084013567ffffffffffffffff81111561351157613510612b5c565b5b61351d86828701613110565b925050604084013567ffffffffffffffff81111561353e5761353d612b5c565b5b61354a86828701613110565b9150509250925092565b61355d81612e73565b811461356857600080fd5b50565b60008135905061357a81613554565b92915050565b6000806040838503121561359757613596612b57565b5b60006135a585828601612d39565b92505060206135b68582860161356b565b9150509250929050565b600080604083850312156135d7576135d6612b57565b5b60006135e585828601612d39565b92505060206135f685828601612d39565b9150509250929050565b600080600080600060a0868803121561361c5761361b612b57565b5b600061362a88828901612d39565b955050602061363b88828901612d39565b945050604061364c88828901612d6f565b935050606061365d88828901612d6f565b925050608086013567ffffffffffffffff81111561367e5761367d612b5c565b5b61368a888289016131b1565b9150509295509295909350565b6000806000606084860312156136b0576136af612b57565b5b60006136be86828701612d39565b93505060206136cf86828701612d6f565b92505060406136e086828701612d6f565b9150509250925092565b7f50726f66696c6520646f6573206e6f7420657869737400000000000000000000600082015250565b6000613720601683612eb4565b915061372b826136ea565b602082019050919050565b6000602082019050818103600083015261374f81613713565b9050919050565b7f4e487b7100000000000000000000000000000000000000000000000000000000600052602260045260246000fd5b6000600282049050600182168061379d57607f821691505b6020821081036137b0576137af613756565b5b50919050565b60008190508160005260206000209050919050565b60006020601f8301049050919050565b600082821b905092915050565b6000600883026138187fffffffffffffffffffffffffffffffffffffffffffffffffffffffffffffffff826137db565b61382286836137db565b95508019841693508086168417925050509392505050565b6000819050919050565b600061385f61385a61385584612d4e565b61383a565b612d4e565b9050919050565b6000819050919050565b61387983613844565b61388d61388582613866565b8484546137e8565b825550505050565b600090565b6138a2613895565b6138ad818484613870565b505050565b5b818110156138d1576138c660008261389a565b6001810190506138b3565b5050565b601f821115613916576138e7816137b6565b6138f0846137cb565b810160208510156138ff578190505b61391361390b856137cb565b8301826138b2565b50505b505050565b600082821c905092915050565b60006139396000198460080261391b565b1980831691505092915050565b60006139528383613928565b9150826002028217905092915050565b61396b82612ea9565b67ffffffffffffffff81111561398457613983612b7c565b5b61398e8254613785565b6139998282856138d5565b600060209050601f8311600181146139cc57600084156139ba578287015190505b6139c48582613946565b865550613a2c565b601f1984166139da866137b6565b60005b82811015613a02578489015182556001820191506020850194506020810190506139dd565b86831015613a1f5784890151613a1b601f891682613928565b8355505b6001600288020188555050505b505050505050565b7f4261746368207472616e73666572206e6f7420737570706f7274656400000000600082015250565b6000613a6a601c83612eb4565b9150613a7582613a34565b602082019050919050565b60006020820190508181036000830152613a9981613a5d565b9050919050565b6000604082019050613ab56000830185612dc4565b613ac26020830184612dc4565b9392505050565b7f4e487b7100000000000000000000000000000000000000000000000000000000600052603260045260246000fd5b7f4261746368206275726e206e6f7420737570706f727465640000000000000000600082015250565b6000613b2e601883612eb4565b9150613b3982613af8565b602082019050919050565b60006020820190508181036000830152613b5d81613b21565b9050919050565b7f416c726561647920696e697469616c697a656400000000000000000000000000600082015250565b6000613b9a601383612eb4565b9150613ba582613b64565b602082019050919050565b60006020820190508181036000830152613bc981613b8d565b9050919050565b6000819050919050565b600067ffffffffffffffff82169050919050565b6000613c09613c04613bff84613bd0565b61383a565b613bda565b9050919050565b613c1981613bee565b82525050565b6000602082019050613c346000830184613c10565b92915050565b7f4e487b7100000000000000000000000000000000000000000000000000000000600052601160045260246000fd5b6000613c7482612d4e565b9150613c7f83612d4e565b9250828203905081811115613c9757613c96613c3a565b5b92915050565b6000613ca882612d4e565b9150613cb383612d4e565b9250828201905080821115613ccb57613cca613c3a565b5b92915050565b600081905092915050565b6000613ce782612ea9565b613cf18185613cd1565b9350613d01818560208601612ec5565b80840191505092915050565b6000613d198284613cdc565b915081905092915050565b7f43616e206f6e6c79207472616e7366657220796f7572206f776e206163636f7560008201527f6e74000000000000000000000000000000000000000000000000000000000000602082015250565b6000613d80602283612eb4565b9150613d8b82613d24565b604082019050919050565b60006020820190508181036000830152613daf81613d73565b9050919050565b7f56616c75652063616e6e6f742065786365656420310000000000000000000000600082015250565b6000613dec601583612eb4565b9150613df782613db6565b602082019050919050565b60006020820190508181036000830152613e1b81613ddf565b9050919050565b7f43616e206f6e6c79206275726e20796f7572206f776e206163636f756e740000600082015250565b6000613e58601e83612eb4565b9150613e6382613e22565b602082019050919050565b60006020820190508181036000830152613e8781613e4b565b9050919050565b613e9781612d10565b82525050565b6000602082019050613eb26000830184613e8e565b92915050565b7f50726f66696c6520616c72656164792065786973747300000000000000000000600082015250565b6000613eee601683612eb4565b9150613ef982613eb8565b602082019050919050565b60006020820190508181036000830152613f1d81613ee1565b9050919050565b600060ff82169050919050565b6000613f3c82613f24565b9150613f4783613f24565b9250828201905060ff811115613f6057613f5f613c3a565b5b92915050565b7f536c756720616c72656164792074616b656e0000000000000000000000000000600082015250565b6000613f9c601283612eb4565b9150613fa782613f66565b602082019050919050565b60006020820190508181036000830152613fcb81613f8f565b9050919050565b7f4e6f742070726f66696c65206f776e6572000000000000000000000000000000600082015250565b6000614008601183612eb4565b915061401382613fd2565b602082019050919050565b6000602082019050818103600083015261403781613ffb565b9050919050565b7f4e6f74206f776e6572206f662070726f66696c65206964000000000000000000600082015250565b6000614074601783612eb4565b915061407f8261403e565b602082019050919050565b600060208201905081810360008301526140a381614067565b9050919050565b600081519050919050565b600082825260208201905092915050565b60006140d1826140aa565b6140db81856140b5565b93506140eb818560208601612ec5565b6140f481612b6b565b840191505092915050565b600060a0820190506141146000830188613e8e565b6141216020830187613e8e565b61412e6040830186612dc4565b61413b6060830185612dc4565b818103608083015261414d81846140c6565b90509695505050505050565b60008151905061416881612e1a565b92915050565b60006020828403121561418457614183612b57565b5b600061419284828501614159565b91505092915050565b600060a0820190506141b06000830188613e8e565b6141bd6020830187613e8e565b81810360408301526141cf8186613449565b905081810360608301526141e38185613449565b905081810360808301526141f781846140c6565b90509695505050505050565b60006080820190506142186000830187613e8e565b6142256020830186612dc4565b6142326040830185612dc4565b61423f6060830184612dc4565b95945050505050565b600060408201905081810360008301526142628185613449565b905081810360208301526142768184613449565b9050939250505056fea2646970667358221220a6584014b6c54752f789c0cfca6af53d78ec86a5bb9d3bdaf0ba115daac6380264736f6c634300081c0033",
  "linkReferences": {},
  "deployedLinkReferences": {}
}